{
  "_format": "hh-sol-artifact-1",
  "contractName": "DomainRegistrar",
  "sourceName": "contracts/DomainRegistrar.sol",
  "abi": [
    {
      "inputs": [],
      "stateMutability": "nonpayable",
      "type": "constructor"
    },
    {
      "inputs": [
        {
          "internalType": "string",
          "name": "",
          "type": "string"
        }
      ],
      "name": "activeAuctions",
      "outputs": [
        {
          "internalType": "uint256",
          "name": "biddingStart",
          "type": "uint256"
        },
        {
          "internalType": "uint256",
          "name": "biddingEnd",
          "type": "uint256"
        },
        {
          "internalType": "uint256",
          "name": "revealEnd",
          "type": "uint256"
        },
        {
          "internalType": "uint256",
          "name": "highestBid",
          "type": "uint256"
        },
        {
          "internalType": "address",
          "name": "highestBidder",
          "type": "address"
        }
      ],
      "stateMutability": "view",
      "type": "function"
    },
    {
      "inputs": [
        {
          "internalType": "string",
          "name": "",
          "type": "string"
        },
        {
          "internalType": "address",
          "name": "",
          "type": "address"
        }
      ],
      "name": "bids",
      "outputs": [
        {
          "internalType": "bytes32",
          "name": "commitment",
          "type": "bytes32"
        },
        {
          "internalType": "bool",
          "name": "revealed",
          "type": "bool"
        }
      ],
      "stateMutability": "view",
      "type": "function"
    },
    {
      "inputs": [
        {
          "internalType": "string",
          "name": "_domain",
          "type": "string"
        },
        {
          "internalType": "bytes32",
          "name": "_commitment",
          "type": "bytes32"
        }
      ],
      "name": "commitBid",
      "outputs": [],
      "stateMutability": "payable",
      "type": "function"
    },
    {
      "inputs": [
        {
          "internalType": "uint256",
          "name": "",
          "type": "uint256"
        }
      ],
      "name": "domains",
      "outputs": [
        {
          "internalType": "string",
          "name": "name",
          "type": "string"
        },
        {
          "internalType": "address",
          "name": "owner",
          "type": "address"
        }
      ],
      "stateMutability": "view",
      "type": "function"
    },
    {
      "inputs": [
        {
          "internalType": "string",
          "name": "_domain",
          "type": "string"
        }
      ],
      "name": "getDomainOwner",
      "outputs": [
        {
          "internalType": "address",
          "name": "",
          "type": "address"
        }
      ],
      "stateMutability": "view",
      "type": "function"
    },
    {
      "inputs": [],
      "name": "getDomains",
      "outputs": [
        {
          "components": [
            {
              "internalType": "string",
              "name": "name",
              "type": "string"
            },
            {
              "internalType": "address",
              "name": "owner",
              "type": "address"
            }
          ],
          "internalType": "struct DomainRegistrar.Domain[]",
          "name": "",
          "type": "tuple[]"
        }
      ],
      "stateMutability": "view",
      "type": "function"
    },
    {
      "inputs": [
        {
          "internalType": "string",
          "name": "_domain",
          "type": "string"
        },
        {
          "internalType": "bytes32",
          "name": "_amount",
          "type": "bytes32"
        },
        {
          "internalType": "bytes32",
          "name": "_secret",
          "type": "bytes32"
        }
      ],
      "name": "revealBid",
      "outputs": [],
      "stateMutability": "nonpayable",
      "type": "function"
    }
  ],
  "bytecode": "0x608060405234801561001057600080fd5b5060005b600a81101561011f57600061003a82606161002f919061016b565b61012560201b60201c565b60405160200161004a9190610243565b604051602081830303815290604052905060006040518060400160405280838152602001600073ffffffffffffffffffffffffffffffffffffffff16815250908060018154018082558091505060019003906000526020600020906002020160009091909190915060008201518160000190816100c791906104af565b5060208201518160010160006101000a81548173ffffffffffffffffffffffffffffffffffffffff021916908373ffffffffffffffffffffffffffffffffffffffff1602179055505050508080600101915050610014565b50610581565b60008160f81b9050919050565b6000819050919050565b7f4e487b7100000000000000000000000000000000000000000000000000000000600052601160045260246000fd5b600061017682610132565b915061018183610132565b92508282019050808211156101995761019861013c565b5b92915050565b60007fff0000000000000000000000000000000000000000000000000000000000000082169050919050565b6000819050919050565b6101e66101e18261019f565b6101cb565b82525050565b600081905092915050565b7f2e6e747500000000000000000000000000000000000000000000000000000000600082015250565b600061022d6004836101ec565b9150610238826101f7565b600482019050919050565b600061024f82846101d5565b60018201915061025e82610220565b915081905092915050565b600081519050919050565b7f4e487b7100000000000000000000000000000000000000000000000000000000600052604160045260246000fd5b7f4e487b7100000000000000000000000000000000000000000000000000000000600052602260045260246000fd5b600060028204905060018216806102ea57607f821691505b6020821081036102fd576102fc6102a3565b5b50919050565b60008190508160005260206000209050919050565b60006020601f8301049050919050565b600082821b905092915050565b6000600883026103657fffffffffffffffffffffffffffffffffffffffffffffffffffffffffffffffff82610328565b61036f8683610328565b95508019841693508086168417925050509392505050565b6000819050919050565b60006103ac6103a76103a284610132565b610387565b610132565b9050919050565b6000819050919050565b6103c683610391565b6103da6103d2826103b3565b848454610335565b825550505050565b600090565b6103ef6103e2565b6103fa8184846103bd565b505050565b5b8181101561041e576104136000826103e7565b600181019050610400565b5050565b601f8211156104635761043481610303565b61043d84610318565b8101602085101561044c578190505b61046061045885610318565b8301826103ff565b50505b505050565b600082821c905092915050565b600061048660001984600802610468565b1980831691505092915050565b600061049f8383610475565b9150826002028217905092915050565b6104b882610269565b67ffffffffffffffff8111156104d1576104d0610274565b5b6104db82546102d2565b6104e6828285610422565b600060209050601f8311600181146105195760008415610507578287015190505b6105118582610493565b865550610579565b601f19841661052786610303565b60005b8281101561054f5784890151825560018201915060208501945060208101905061052a565b8683101561056c5784890151610568601f891682610475565b8355505b6001600288020188555050505b505050505050565b611568806105906000396000f3fe6080604052600436106100705760003560e01c806366cf8fab1161004e57806366cf8fab1461010f5780639101cc651461014d578063aea55c5914610178578063dff44601146101a157610070565b80630261501814610075578063259701151461009157806326dfa85c146100ce575b600080fd5b61008f600480360381019061008a9190610be8565b6101df565b005b34801561009d57600080fd5b506100b860048036038101906100b39190610c44565b610437565b6040516100c59190610cce565b60405180910390f35b3480156100da57600080fd5b506100f560048036038101906100f09190610c44565b610514565b604051610106959493929190610d02565b60405180910390f35b34801561011b57600080fd5b5061013660048036038101906101319190610d81565b610580565b604051610144929190610e2d565b60405180910390f35b34801561015957600080fd5b5061016261065c565b60405161016f9190610fb5565b60405180910390f35b34801561018457600080fd5b5061019f600480360381019061019a9190610fd7565b6107a3565b005b3480156101ad57600080fd5b506101c860048036038101906101c39190611072565b610a04565b6040516101d69291906110f8565b60405180910390f35b60006001836040516101f1919061115d565b908152602001604051809103902060000154036102f0576040518060a00160405280428152602001600a4261022691906111a3565b8152602001601e4261023891906111a3565b815260200160008152602001600073ffffffffffffffffffffffffffffffffffffffff1681525060018360405161026f919061115d565b90815260200160405180910390206000820151816000015560208201518160010155604082015181600201556060820151816003015560808201518160040160006101000a81548173ffffffffffffffffffffffffffffffffffffffff021916908373ffffffffffffffffffffffffffffffffffffffff1602179055509050505b6000801b600283604051610304919061115d565b908152602001604051809103902060003373ffffffffffffffffffffffffffffffffffffffff1673ffffffffffffffffffffffffffffffffffffffff1681526020019081526020016000206000015414610393576040517f08c379a000000000000000000000000000000000000000000000000000000000815260040161038a90611249565b60405180910390fd5b6040518060400160405280828152602001600015158152506002836040516103bb919061115d565b908152602001604051809103902060003373ffffffffffffffffffffffffffffffffffffffff1673ffffffffffffffffffffffffffffffffffffffff1681526020019081526020016000206000820151816000015560208201518160010160006101000a81548160ff0219169083151502179055509050505050565b60008060018360405161044a919061115d565b9081526020016040518091039020905060008160000154036104a1576040517f08c379a0000000000000000000000000000000000000000000000000000000008152600401610498906112b5565b60405180910390fd5b806001015442116104e7576040517f08c379a00000000000000000000000000000000000000000000000000000000081526004016104de90611321565b60405180910390fd5b8060040160009054906101000a900473ffffffffffffffffffffffffffffffffffffffff16915050919050565b6001818051602081018201805184825260208301602085012081835280955050505050506000915090508060000154908060010154908060020154908060030154908060040160009054906101000a900473ffffffffffffffffffffffffffffffffffffffff16905085565b6000818154811061059057600080fd5b90600052602060002090600202016000915090508060000180546105b390611370565b80601f01602080910402602001604051908101604052809291908181526020018280546105df90611370565b801561062c5780601f106106015761010080835404028352916020019161062c565b820191906000526020600020905b81548152906001019060200180831161060f57829003601f168201915b5050505050908060010160009054906101000a900473ffffffffffffffffffffffffffffffffffffffff16905082565b60606000805480602002602001604051908101604052809291908181526020016000905b8282101561079a57838290600052602060002090600202016040518060400160405290816000820180546106b390611370565b80601f01602080910402602001604051908101604052809291908181526020018280546106df90611370565b801561072c5780601f106107015761010080835404028352916020019161072c565b820191906000526020600020905b81548152906001019060200180831161070f57829003601f168201915b505050505081526020016001820160009054906101000a900473ffffffffffffffffffffffffffffffffffffffff1673ffffffffffffffffffffffffffffffffffffffff1673ffffffffffffffffffffffffffffffffffffffff168152505081526020019060010190610680565b50505050905090565b60006001846040516107b5919061115d565b90815260200160405180910390209050600081600001540361080c576040517f08c379a0000000000000000000000000000000000000000000000000000000008152600401610803906112b5565b60405180910390fd5b806001015442118015610823575080600201544211155b610862576040517f08c379a0000000000000000000000000000000000000000000000000000000008152600401610859906113ed565b60405180910390fd5b6000600285604051610874919061115d565b908152602001604051809103902060003373ffffffffffffffffffffffffffffffffffffffff1673ffffffffffffffffffffffffffffffffffffffff16815260200190815260200160002090508060010160009054906101000a900460ff1615610913576040517f08c379a000000000000000000000000000000000000000000000000000000000815260040161090a90611459565b60405180910390fd5b8060000154848460405160200161092b92919061149a565b6040516020818303038152906040528051906020012014610981576040517f08c379a000000000000000000000000000000000000000000000000000000000815260040161097890611512565b60405180910390fd5b60018160010160006101000a81548160ff02191690831515021790555081600301548460001c11156109fd578360001c8260030181905550338260040160006101000a81548173ffffffffffffffffffffffffffffffffffffffff021916908373ffffffffffffffffffffffffffffffffffffffff1602179055505b5050505050565b600282805160208101820180518482526020830160208501208183528095505050505050602052806000526040600020600091509150508060000154908060010160009054906101000a900460ff16905082565b6000604051905090565b600080fd5b600080fd5b600080fd5b600080fd5b6000601f19601f8301169050919050565b7f4e487b7100000000000000000000000000000000000000000000000000000000600052604160045260246000fd5b610abf82610a76565b810181811067ffffffffffffffff82111715610ade57610add610a87565b5b80604052505050565b6000610af1610a58565b9050610afd8282610ab6565b919050565b600067ffffffffffffffff821115610b1d57610b1c610a87565b5b610b2682610a76565b9050602081019050919050565b82818337600083830152505050565b6000610b55610b5084610b02565b610ae7565b905082815260208101848484011115610b7157610b70610a71565b5b610b7c848285610b33565b509392505050565b600082601f830112610b9957610b98610a6c565b5b8135610ba9848260208601610b42565b91505092915050565b6000819050919050565b610bc581610bb2565b8114610bd057600080fd5b50565b600081359050610be281610bbc565b92915050565b60008060408385031215610bff57610bfe610a62565b5b600083013567ffffffffffffffff811115610c1d57610c1c610a67565b5b610c2985828601610b84565b9250506020610c3a85828601610bd3565b9150509250929050565b600060208284031215610c5a57610c59610a62565b5b600082013567ffffffffffffffff811115610c7857610c77610a67565b5b610c8484828501610b84565b91505092915050565b600073ffffffffffffffffffffffffffffffffffffffff82169050919050565b6000610cb882610c8d565b9050919050565b610cc881610cad565b82525050565b6000602082019050610ce36000830184610cbf565b92915050565b6000819050919050565b610cfc81610ce9565b82525050565b600060a082019050610d176000830188610cf3565b610d246020830187610cf3565b610d316040830186610cf3565b610d3e6060830185610cf3565b610d4b6080830184610cbf565b9695505050505050565b610d5e81610ce9565b8114610d6957600080fd5b50565b600081359050610d7b81610d55565b92915050565b600060208284031215610d9757610d96610a62565b5b6000610da584828501610d6c565b91505092915050565b600081519050919050565b600082825260208201905092915050565b60005b83811015610de8578082015181840152602081019050610dcd565b60008484015250505050565b6000610dff82610dae565b610e098185610db9565b9350610e19818560208601610dca565b610e2281610a76565b840191505092915050565b60006040820190508181036000830152610e478185610df4565b9050610e566020830184610cbf565b9392505050565b600081519050919050565b600082825260208201905092915050565b6000819050602082019050919050565b600082825260208201905092915050565b6000610ea582610dae565b610eaf8185610e89565b9350610ebf818560208601610dca565b610ec881610a76565b840191505092915050565b610edc81610cad565b82525050565b60006040830160008301518482036000860152610eff8282610e9a565b9150506020830151610f146020860182610ed3565b508091505092915050565b6000610f2b8383610ee2565b905092915050565b6000602082019050919050565b6000610f4b82610e5d565b610f558185610e68565b935083602082028501610f6785610e79565b8060005b85811015610fa35784840389528151610f848582610f1f565b9450610f8f83610f33565b925060208a01995050600181019050610f6b565b50829750879550505050505092915050565b60006020820190508181036000830152610fcf8184610f40565b905092915050565b600080600060608486031215610ff057610fef610a62565b5b600084013567ffffffffffffffff81111561100e5761100d610a67565b5b61101a86828701610b84565b935050602061102b86828701610bd3565b925050604061103c86828701610bd3565b9150509250925092565b61104f81610cad565b811461105a57600080fd5b50565b60008135905061106c81611046565b92915050565b6000806040838503121561108957611088610a62565b5b600083013567ffffffffffffffff8111156110a7576110a6610a67565b5b6110b385828601610b84565b92505060206110c48582860161105d565b9150509250929050565b6110d781610bb2565b82525050565b60008115159050919050565b6110f2816110dd565b82525050565b600060408201905061110d60008301856110ce565b61111a60208301846110e9565b9392505050565b600081905092915050565b600061113782610dae565b6111418185611121565b9350611151818560208601610dca565b80840191505092915050565b6000611169828461112c565b915081905092915050565b7f4e487b7100000000000000000000000000000000000000000000000000000000600052601160045260246000fd5b60006111ae82610ce9565b91506111b983610ce9565b92508282019050808211156111d1576111d0611174565b5b92915050565b7f4163636f756e7420616c72656164792062696464656420666f7220746869732060008201527f6164647265737300000000000000000000000000000000000000000000000000602082015250565b6000611233602783610db9565b915061123e826111d7565b604082019050919050565b6000602082019050818103600083015261126281611226565b9050919050565b7f41756374696f6e20646f6573206e6f7420657869737400000000000000000000600082015250565b600061129f601683610db9565b91506112aa82611269565b602082019050919050565b600060208201905081810360008301526112ce81611292565b9050919050565b7f41756374696f6e207374696c6c206f6e676f696e670000000000000000000000600082015250565b600061130b601583610db9565b9150611316826112d5565b602082019050919050565b6000602082019050818103600083015261133a816112fe565b9050919050565b7f4e487b7100000000000000000000000000000000000000000000000000000000600052602260045260246000fd5b6000600282049050600182168061138857607f821691505b60208210810361139b5761139a611341565b5b50919050565b7f4e6f7420696e2072657665616c20706861736500000000000000000000000000600082015250565b60006113d7601383610db9565b91506113e2826113a1565b602082019050919050565b60006020820190508181036000830152611406816113ca565b9050919050565b7f42696420616c72656164792072657665616c6564000000000000000000000000600082015250565b6000611443601483610db9565b915061144e8261140d565b602082019050919050565b6000602082019050818103600083015261147281611436565b9050919050565b6000819050919050565b61149461148f82610bb2565b611479565b82525050565b60006114a68285611483565b6020820191506114b68284611483565b6020820191508190509392505050565b7f496e76616c69642072657665616c000000000000000000000000000000000000600082015250565b60006114fc600e83610db9565b9150611507826114c6565b602082019050919050565b6000602082019050818103600083015261152b816114ef565b905091905056fea2646970667358221220efcce77d3075fc931a758b34c4f901eeb24ffb16ca0e1fbff59995d697b1d18264736f6c634300081b0033",
  "linkReferences": {},
  "deployedLinkReferences": {}
}