{
  "_format": "hh-sol-artifact-1",
  "contractName": "DomainRegistrar",
  "sourceName": "contracts/DomainRegistrar.sol",
  "abi": [
    {
      "inputs": [],
      "stateMutability": "nonpayable",
      "type": "constructor"
    },
    {
      "inputs": [
        {
          "internalType": "string",
          "name": "",
          "type": "string"
        }
      ],
      "name": "activeAuctions",
      "outputs": [
        {
          "internalType": "uint256",
          "name": "auctionStart",
          "type": "uint256"
        },
        {
          "internalType": "uint256",
          "name": "auctionEnd",
          "type": "uint256"
        },
        {
          "internalType": "uint256",
          "name": "revealEnd",
          "type": "uint256"
        },
        {
          "internalType": "uint256",
          "name": "highestBid",
          "type": "uint256"
        },
        {
          "internalType": "address",
          "name": "highestBidder",
          "type": "address"
        }
      ],
      "stateMutability": "view",
      "type": "function"
    },
    {
      "inputs": [
        {
          "internalType": "string",
          "name": "",
          "type": "string"
        },
        {
          "internalType": "address",
          "name": "",
          "type": "address"
        }
      ],
      "name": "bids",
      "outputs": [
        {
          "internalType": "bytes32",
          "name": "commitment",
          "type": "bytes32"
        },
        {
          "internalType": "bool",
          "name": "revealed",
          "type": "bool"
        }
      ],
      "stateMutability": "view",
      "type": "function"
    },
    {
      "inputs": [
        {
          "internalType": "string",
          "name": "_domain",
          "type": "string"
        },
        {
          "internalType": "bytes32",
          "name": "_commitment",
          "type": "bytes32"
        }
      ],
      "name": "commitBid",
      "outputs": [],
      "stateMutability": "payable",
      "type": "function"
    },
    {
      "inputs": [
        {
          "internalType": "uint256",
          "name": "",
          "type": "uint256"
        }
      ],
      "name": "domains",
      "outputs": [
        {
          "internalType": "string",
          "name": "",
          "type": "string"
        }
      ],
      "stateMutability": "view",
      "type": "function"
    },
    {
      "inputs": [],
      "name": "getDomains",
      "outputs": [
        {
          "internalType": "string[]",
          "name": "",
          "type": "string[]"
        }
      ],
      "stateMutability": "view",
      "type": "function"
    }
  ],
  "bytecode": "0x608060405234801561001057600080fd5b50600080600181540180825580915050600190039060005260206000200160006040518060400160405280600581526020017f612e6e7475000000000000000000000000000000000000000000000000000000815250909190915090816100779190610469565b50600080600181540180825580915050600190039060005260206000200160006040518060400160405280600581526020017f622e6e7475000000000000000000000000000000000000000000000000000000815250909190915090816100de9190610469565b50600080600181540180825580915050600190039060005260206000200160006040518060400160405280600581526020017f632e6e7475000000000000000000000000000000000000000000000000000000815250909190915090816101459190610469565b50600080600181540180825580915050600190039060005260206000200160006040518060400160405280600581526020017f642e6e7475000000000000000000000000000000000000000000000000000000815250909190915090816101ac9190610469565b50600080600181540180825580915050600190039060005260206000200160006040518060400160405280600581526020017f652e6e7475000000000000000000000000000000000000000000000000000000815250909190915090816102139190610469565b5061053b565b600081519050919050565b7f4e487b7100000000000000000000000000000000000000000000000000000000600052604160045260246000fd5b7f4e487b7100000000000000000000000000000000000000000000000000000000600052602260045260246000fd5b6000600282049050600182168061029a57607f821691505b6020821081036102ad576102ac610253565b5b50919050565b60008190508160005260206000209050919050565b60006020601f8301049050919050565b600082821b905092915050565b6000600883026103157fffffffffffffffffffffffffffffffffffffffffffffffffffffffffffffffff826102d8565b61031f86836102d8565b95508019841693508086168417925050509392505050565b6000819050919050565b6000819050919050565b600061036661036161035c84610337565b610341565b610337565b9050919050565b6000819050919050565b6103808361034b565b61039461038c8261036d565b8484546102e5565b825550505050565b600090565b6103a961039c565b6103b4818484610377565b505050565b5b818110156103d8576103cd6000826103a1565b6001810190506103ba565b5050565b601f82111561041d576103ee816102b3565b6103f7846102c8565b81016020851015610406578190505b61041a610412856102c8565b8301826103b9565b50505b505050565b600082821c905092915050565b600061044060001984600802610422565b1980831691505092915050565b6000610459838361042f565b9150826002028217905092915050565b61047282610219565b67ffffffffffffffff81111561048b5761048a610224565b5b6104958254610282565b6104a08282856103dc565b600060209050601f8311600181146104d357600084156104c1578287015190505b6104cb858261044d565b865550610533565b601f1984166104e1866102b3565b60005b82811015610509578489015182556001820191506020850194506020810190506104e4565b868310156105265784890151610522601f89168261042f565b8355505b6001600288020188555050505b505050505050565b610db48061054a6000396000f3fe60806040526004361061004a5760003560e01c8063026150181461004f57806326dfa85c1461006b57806366cf8fab146100ac5780639101cc65146100e9578063dff4460114610114575b600080fd5b61006960048036038101906100649190610781565b610152565b005b34801561007757600080fd5b50610092600480360381019061008d91906107dd565b6103ac565b6040516100a3959493929190610880565b60405180910390f35b3480156100b857600080fd5b506100d360048036038101906100ce91906108ff565b610418565b6040516100e091906109ab565b60405180910390f35b3480156100f557600080fd5b506100fe6104c4565b60405161010b9190610ad9565b60405180910390f35b34801561012057600080fd5b5061013b60048036038101906101369190610b27565b61059d565b604051610149929190610bad565b60405180910390f35b60006001836040516101649190610c12565b90815260200160405180910390206000015403610265576040518060a0016040528042815260200161012c4261019a9190610c58565b8152602001610258426101ad9190610c58565b815260200160008152602001600073ffffffffffffffffffffffffffffffffffffffff168152506001836040516101e49190610c12565b90815260200160405180910390206000820151816000015560208201518160010155604082015181600201556060820151816003015560808201518160040160006101000a81548173ffffffffffffffffffffffffffffffffffffffff021916908373ffffffffffffffffffffffffffffffffffffffff1602179055509050505b6000801b6002836040516102799190610c12565b908152602001604051809103902060003373ffffffffffffffffffffffffffffffffffffffff1673ffffffffffffffffffffffffffffffffffffffff1681526020019081526020016000206000015414610308576040517f08c379a00000000000000000000000000000000000000000000000000000000081526004016102ff90610cfe565b60405180910390fd5b6040518060400160405280828152602001600015158152506002836040516103309190610c12565b908152602001604051809103902060003373ffffffffffffffffffffffffffffffffffffffff1673ffffffffffffffffffffffffffffffffffffffff1681526020019081526020016000206000820151816000015560208201518160010160006101000a81548160ff0219169083151502179055509050505050565b6001818051602081018201805184825260208301602085012081835280955050505050506000915090508060000154908060010154908060020154908060030154908060040160009054906101000a900473ffffffffffffffffffffffffffffffffffffffff16905085565b6000818154811061042857600080fd5b90600052602060002001600091509050805461044390610d4d565b80601f016020809104026020016040519081016040528092919081815260200182805461046f90610d4d565b80156104bc5780601f10610491576101008083540402835291602001916104bc565b820191906000526020600020905b81548152906001019060200180831161049f57829003601f168201915b505050505081565b60606000805480602002602001604051908101604052809291908181526020016000905b8282101561059457838290600052602060002001805461050790610d4d565b80601f016020809104026020016040519081016040528092919081815260200182805461053390610d4d565b80156105805780601f1061055557610100808354040283529160200191610580565b820191906000526020600020905b81548152906001019060200180831161056357829003601f168201915b5050505050815260200190600101906104e8565b50505050905090565b600282805160208101820180518482526020830160208501208183528095505050505050602052806000526040600020600091509150508060000154908060010160009054906101000a900460ff16905082565b6000604051905090565b600080fd5b600080fd5b600080fd5b600080fd5b6000601f19601f8301169050919050565b7f4e487b7100000000000000000000000000000000000000000000000000000000600052604160045260246000fd5b6106588261060f565b810181811067ffffffffffffffff8211171561067757610676610620565b5b80604052505050565b600061068a6105f1565b9050610696828261064f565b919050565b600067ffffffffffffffff8211156106b6576106b5610620565b5b6106bf8261060f565b9050602081019050919050565b82818337600083830152505050565b60006106ee6106e98461069b565b610680565b90508281526020810184848401111561070a5761070961060a565b5b6107158482856106cc565b509392505050565b600082601f83011261073257610731610605565b5b81356107428482602086016106db565b91505092915050565b6000819050919050565b61075e8161074b565b811461076957600080fd5b50565b60008135905061077b81610755565b92915050565b60008060408385031215610798576107976105fb565b5b600083013567ffffffffffffffff8111156107b6576107b5610600565b5b6107c28582860161071d565b92505060206107d38582860161076c565b9150509250929050565b6000602082840312156107f3576107f26105fb565b5b600082013567ffffffffffffffff81111561081157610810610600565b5b61081d8482850161071d565b91505092915050565b6000819050919050565b61083981610826565b82525050565b600073ffffffffffffffffffffffffffffffffffffffff82169050919050565b600061086a8261083f565b9050919050565b61087a8161085f565b82525050565b600060a0820190506108956000830188610830565b6108a26020830187610830565b6108af6040830186610830565b6108bc6060830185610830565b6108c96080830184610871565b9695505050505050565b6108dc81610826565b81146108e757600080fd5b50565b6000813590506108f9816108d3565b92915050565b600060208284031215610915576109146105fb565b5b6000610923848285016108ea565b91505092915050565b600081519050919050565b600082825260208201905092915050565b60005b8381101561096657808201518184015260208101905061094b565b60008484015250505050565b600061097d8261092c565b6109878185610937565b9350610997818560208601610948565b6109a08161060f565b840191505092915050565b600060208201905081810360008301526109c58184610972565b905092915050565b600081519050919050565b600082825260208201905092915050565b6000819050602082019050919050565b600082825260208201905092915050565b6000610a158261092c565b610a1f81856109f9565b9350610a2f818560208601610948565b610a388161060f565b840191505092915050565b6000610a4f8383610a0a565b905092915050565b6000602082019050919050565b6000610a6f826109cd565b610a7981856109d8565b935083602082028501610a8b856109e9565b8060005b85811015610ac75784840389528151610aa88582610a43565b9450610ab383610a57565b925060208a01995050600181019050610a8f565b50829750879550505050505092915050565b60006020820190508181036000830152610af38184610a64565b905092915050565b610b048161085f565b8114610b0f57600080fd5b50565b600081359050610b2181610afb565b92915050565b60008060408385031215610b3e57610b3d6105fb565b5b600083013567ffffffffffffffff811115610b5c57610b5b610600565b5b610b688582860161071d565b9250506020610b7985828601610b12565b9150509250929050565b610b8c8161074b565b82525050565b60008115159050919050565b610ba781610b92565b82525050565b6000604082019050610bc26000830185610b83565b610bcf6020830184610b9e565b9392505050565b600081905092915050565b6000610bec8261092c565b610bf68185610bd6565b9350610c06818560208601610948565b80840191505092915050565b6000610c1e8284610be1565b915081905092915050565b7f4e487b7100000000000000000000000000000000000000000000000000000000600052601160045260246000fd5b6000610c6382610826565b9150610c6e83610826565b9250828201905080821115610c8657610c85610c29565b5b92915050565b7f4163636f756e7420616c72656164792062696464656420666f7220746869732060008201527f6164647265737300000000000000000000000000000000000000000000000000602082015250565b6000610ce8602783610937565b9150610cf382610c8c565b604082019050919050565b60006020820190508181036000830152610d1781610cdb565b9050919050565b7f4e487b7100000000000000000000000000000000000000000000000000000000600052602260045260246000fd5b60006002820490506001821680610d6557607f821691505b602082108103610d7857610d77610d1e565b5b5091905056fea26469706673582212204db3e043b6b0408bcdab9d7209a641c848c4ed1558b91935b73b7f959ec52ba564736f6c634300081b0033",
  "linkReferences": {},
  "deployedLinkReferences": {}
}