{
  "_format": "hh-sol-artifact-1",
  "contractName": "DomainRegistrar",
  "sourceName": "contracts/DomainRegistrar.sol",
  "abi": [
    {
      "inputs": [],
      "stateMutability": "nonpayable",
      "type": "constructor"
    },
    {
      "inputs": [
        {
          "internalType": "string",
          "name": "",
          "type": "string"
        }
      ],
      "name": "activeAuctions",
      "outputs": [
        {
          "internalType": "uint256",
          "name": "commitStart",
          "type": "uint256"
        },
        {
          "internalType": "uint256",
          "name": "commitEnd",
          "type": "uint256"
        },
        {
          "internalType": "uint256",
          "name": "revealEnd",
          "type": "uint256"
        },
        {
          "internalType": "uint256",
          "name": "highestBid",
          "type": "uint256"
        },
        {
          "internalType": "address",
          "name": "highestBidder",
          "type": "address"
        }
      ],
      "stateMutability": "view",
      "type": "function"
    },
    {
      "inputs": [
        {
          "internalType": "string",
          "name": "",
          "type": "string"
        },
        {
          "internalType": "address",
          "name": "",
          "type": "address"
        }
      ],
      "name": "bids",
      "outputs": [
        {
          "internalType": "bytes32",
          "name": "commitment",
          "type": "bytes32"
        },
        {
          "internalType": "bool",
          "name": "revealed",
          "type": "bool"
        }
      ],
      "stateMutability": "view",
      "type": "function"
    },
    {
      "inputs": [
        {
          "internalType": "string",
          "name": "_domain",
          "type": "string"
        },
        {
          "internalType": "bytes32",
          "name": "_commitment",
          "type": "bytes32"
        }
      ],
      "name": "commitBid",
      "outputs": [],
      "stateMutability": "payable",
      "type": "function"
    },
    {
      "inputs": [
        {
          "internalType": "uint256",
          "name": "",
          "type": "uint256"
        }
      ],
      "name": "domains",
      "outputs": [
        {
          "internalType": "string",
          "name": "",
          "type": "string"
        }
      ],
      "stateMutability": "view",
      "type": "function"
    },
    {
      "inputs": [],
      "name": "getAvailableDomains",
      "outputs": [
        {
          "internalType": "string[]",
          "name": "",
          "type": "string[]"
        }
      ],
      "stateMutability": "view",
      "type": "function"
    },
    {
      "inputs": [
        {
          "internalType": "string",
          "name": "_domain",
          "type": "string"
        }
      ],
      "name": "getDomainOwner",
      "outputs": [
        {
          "internalType": "address",
          "name": "",
          "type": "address"
        }
      ],
      "stateMutability": "view",
      "type": "function"
    },
    {
      "inputs": [],
      "name": "getDomains",
      "outputs": [
        {
          "internalType": "string[]",
          "name": "",
          "type": "string[]"
        }
      ],
      "stateMutability": "view",
      "type": "function"
    },
    {
      "inputs": [
        {
          "internalType": "string",
          "name": "_domain",
          "type": "string"
        },
        {
          "internalType": "bytes32",
          "name": "_amount",
          "type": "bytes32"
        },
        {
          "internalType": "bytes32",
          "name": "_secret",
          "type": "bytes32"
        }
      ],
      "name": "revealBid",
      "outputs": [],
      "stateMutability": "nonpayable",
      "type": "function"
    }
  ],
  "bytecode": "0x608060405234801561001057600080fd5b5060005b600a81101561014957600061003a82606161002f9190610241565b6101fb60201b60201c565b60405160200161004a9190610319565b604051602081830303815290604052905060008190506000819080600181540180825580915050600190039060005260206000200160009091909190915090816100949190610585565b5060006001826040516100a791906106b2565b908152602001604051809103902060006101000a81548173ffffffffffffffffffffffffffffffffffffffff021916908373ffffffffffffffffffffffffffffffffffffffff160217905550600060028260405161010591906106b2565b908152602001604051809103902060006101000a81548160ff02191690836003811115610135576101346106c9565b5b021790555050508080600101915050610014565b50600080600181540180825580915050600190039060005260206000200160006040518060400160405280600781526020017f626f622e6e747500000000000000000000000000000000000000000000000000815250909190915090816101b09190610585565b50600160026040516101c190610744565b908152602001604051809103902060006101000a81548160ff021916908360038111156101f1576101f06106c9565b5b0217905550610759565b60008160f81b9050919050565b6000819050919050565b7f4e487b7100000000000000000000000000000000000000000000000000000000600052601160045260246000fd5b600061024c82610208565b915061025783610208565b925082820190508082111561026f5761026e610212565b5b92915050565b60007fff0000000000000000000000000000000000000000000000000000000000000082169050919050565b6000819050919050565b6102bc6102b782610275565b6102a1565b82525050565b600081905092915050565b7f2e6e747500000000000000000000000000000000000000000000000000000000600082015250565b60006103036004836102c2565b915061030e826102cd565b600482019050919050565b600061032582846102ab565b600182019150610334826102f6565b915081905092915050565b600081519050919050565b7f4e487b7100000000000000000000000000000000000000000000000000000000600052604160045260246000fd5b7f4e487b7100000000000000000000000000000000000000000000000000000000600052602260045260246000fd5b600060028204905060018216806103c057607f821691505b6020821081036103d3576103d2610379565b5b50919050565b60008190508160005260206000209050919050565b60006020601f8301049050919050565b600082821b905092915050565b60006008830261043b7fffffffffffffffffffffffffffffffffffffffffffffffffffffffffffffffff826103fe565b61044586836103fe565b95508019841693508086168417925050509392505050565b6000819050919050565b600061048261047d61047884610208565b61045d565b610208565b9050919050565b6000819050919050565b61049c83610467565b6104b06104a882610489565b84845461040b565b825550505050565b600090565b6104c56104b8565b6104d0818484610493565b505050565b5b818110156104f4576104e96000826104bd565b6001810190506104d6565b5050565b601f8211156105395761050a816103d9565b610513846103ee565b81016020851015610522578190505b61053661052e856103ee565b8301826104d5565b50505b505050565b600082821c905092915050565b600061055c6000198460080261053e565b1980831691505092915050565b6000610575838361054b565b9150826002028217905092915050565b61058e8261033f565b67ffffffffffffffff8111156105a7576105a661034a565b5b6105b182546103a8565b6105bc8282856104f8565b600060209050601f8311600181146105ef57600084156105dd578287015190505b6105e78582610569565b86555061064f565b601f1984166105fd866103d9565b60005b8281101561062557848901518255600182019150602085019450602081019050610600565b86831015610642578489015161063e601f89168261054b565b8355505b6001600288020188555050505b505050505050565b60005b8381101561067557808201518184015260208101905061065a565b60008484015250505050565b600061068c8261033f565b61069681856102c2565b93506106a6818560208601610657565b80840191505092915050565b60006106be8284610681565b915081905092915050565b7f4e487b7100000000000000000000000000000000000000000000000000000000600052602160045260246000fd5b7f626f622e6e747500000000000000000000000000000000000000000000000000600082015250565b600061072e6007836102c2565b9150610739826106f8565b600782019050919050565b600061074f82610721565b9150819050919050565b6117af806107686000396000f3fe60806040526004361061007b5760003560e01c80639101cc651161004e5780639101cc6514610157578063aea55c5914610182578063b3dac2fc146101ab578063dff44601146101d65761007b565b80630261501814610080578063259701151461009c57806326dfa85c146100d957806366cf8fab1461011a575b600080fd5b61009a60048036038101906100959190610d7c565b610214565b005b3480156100a857600080fd5b506100c360048036038101906100be9190610dd8565b6104b2565b6040516100d09190610e62565b60405180910390f35b3480156100e557600080fd5b5061010060048036038101906100fb9190610dd8565b61058f565b604051610111959493929190610e96565b60405180910390f35b34801561012657600080fd5b50610141600480360381019061013c9190610f15565b6105fb565b60405161014e9190610fc1565b60405180910390f35b34801561016357600080fd5b5061016c6106a7565b60405161017991906110ef565b60405180910390f35b34801561018e57600080fd5b506101a960048036038101906101a49190611111565b610780565b005b3480156101b757600080fd5b506101c06109e1565b6040516101cd91906110ef565b60405180910390f35b3480156101e257600080fd5b506101fd60048036038101906101f891906111ac565b610b98565b60405161020b929190611232565b60405180910390f35b60006003836040516102269190611297565b9081526020016040518091039020600001540361036b576040518060a00160405280428152602001600a4261025b91906112dd565b8152602001601e4261026d91906112dd565b815260200160008152602001600073ffffffffffffffffffffffffffffffffffffffff168152506003836040516102a49190611297565b90815260200160405180910390206000820151816000015560208201518160010155604082015181600201556060820151816003015560808201518160040160006101000a81548173ffffffffffffffffffffffffffffffffffffffff021916908373ffffffffffffffffffffffffffffffffffffffff160217905550905050600280836040516103359190611297565b908152602001604051809103902060006101000a81548160ff0219169083600381111561036557610364611311565b5b02179055505b6000801b60048360405161037f9190611297565b908152602001604051809103902060003373ffffffffffffffffffffffffffffffffffffffff1673ffffffffffffffffffffffffffffffffffffffff168152602001908152602001600020600001541461040e576040517f08c379a0000000000000000000000000000000000000000000000000000000008152600401610405906113b2565b60405180910390fd5b6040518060400160405280828152602001600015158152506004836040516104369190611297565b908152602001604051809103902060003373ffffffffffffffffffffffffffffffffffffffff1673ffffffffffffffffffffffffffffffffffffffff1681526020019081526020016000206000820151816000015560208201518160010160006101000a81548160ff0219169083151502179055509050505050565b6000806003836040516104c59190611297565b90815260200160405180910390209050600081600001540361051c576040517f08c379a00000000000000000000000000000000000000000000000000000000081526004016105139061141e565b60405180910390fd5b80600101544211610562576040517f08c379a00000000000000000000000000000000000000000000000000000000081526004016105599061148a565b60405180910390fd5b8060040160009054906101000a900473ffffffffffffffffffffffffffffffffffffffff16915050919050565b6003818051602081018201805184825260208301602085012081835280955050505050506000915090508060000154908060010154908060020154908060030154908060040160009054906101000a900473ffffffffffffffffffffffffffffffffffffffff16905085565b6000818154811061060b57600080fd5b906000526020600020016000915090508054610626906114d9565b80601f0160208091040260200160405190810160405280929190818152602001828054610652906114d9565b801561069f5780601f106106745761010080835404028352916020019161069f565b820191906000526020600020905b81548152906001019060200180831161068257829003601f168201915b505050505081565b60606000805480602002602001604051908101604052809291908181526020016000905b828210156107775783829060005260206000200180546106ea906114d9565b80601f0160208091040260200160405190810160405280929190818152602001828054610716906114d9565b80156107635780601f1061073857610100808354040283529160200191610763565b820191906000526020600020905b81548152906001019060200180831161074657829003601f168201915b5050505050815260200190600101906106cb565b50505050905090565b60006003846040516107929190611297565b9081526020016040518091039020905060008160000154036107e9576040517f08c379a00000000000000000000000000000000000000000000000000000000081526004016107e09061141e565b60405180910390fd5b806001015442118015610800575080600201544211155b61083f576040517f08c379a000000000000000000000000000000000000000000000000000000000815260040161083690611556565b60405180910390fd5b60006004856040516108519190611297565b908152602001604051809103902060003373ffffffffffffffffffffffffffffffffffffffff1673ffffffffffffffffffffffffffffffffffffffff16815260200190815260200160002090508060010160009054906101000a900460ff16156108f0576040517f08c379a00000000000000000000000000000000000000000000000000000000081526004016108e7906115c2565b60405180910390fd5b80600001548484604051602001610908929190611603565b604051602081830303815290604052805190602001201461095e576040517f08c379a00000000000000000000000000000000000000000000000000000000081526004016109559061167b565b60405180910390fd5b60018160010160006101000a81548160ff02191690831515021790555081600301548460001c11156109da578360001c8260030181905550338260040160006101000a81548173ffffffffffffffffffffffffffffffffffffffff021916908373ffffffffffffffffffffffffffffffffffffffff1602179055505b5050505050565b60606000808054905067ffffffffffffffff811115610a0357610a02610c1b565b5b604051908082528060200260200182016040528015610a3657816020015b6060815260200190600190039081610a215790505b50905060005b600080549050811015610b905760006003811115610a5d57610a5c611311565b5b600260008381548110610a7357610a7261169b565b5b90600052602060002001604051610a8a9190611762565b908152602001604051809103902060009054906101000a900460ff166003811115610ab857610ab7611311565b5b03610b835760008181548110610ad157610ad061169b565b5b906000526020600020018054610ae6906114d9565b80601f0160208091040260200160405190810160405280929190818152602001828054610b12906114d9565b8015610b5f5780601f10610b3457610100808354040283529160200191610b5f565b820191906000526020600020905b815481529060010190602001808311610b4257829003601f168201915b5050505050828281518110610b7757610b7661169b565b5b60200260200101819052505b8080600101915050610a3c565b508091505090565b600482805160208101820180518482526020830160208501208183528095505050505050602052806000526040600020600091509150508060000154908060010160009054906101000a900460ff16905082565b6000604051905090565b600080fd5b600080fd5b600080fd5b600080fd5b6000601f19601f8301169050919050565b7f4e487b7100000000000000000000000000000000000000000000000000000000600052604160045260246000fd5b610c5382610c0a565b810181811067ffffffffffffffff82111715610c7257610c71610c1b565b5b80604052505050565b6000610c85610bec565b9050610c918282610c4a565b919050565b600067ffffffffffffffff821115610cb157610cb0610c1b565b5b610cba82610c0a565b9050602081019050919050565b82818337600083830152505050565b6000610ce9610ce484610c96565b610c7b565b905082815260208101848484011115610d0557610d04610c05565b5b610d10848285610cc7565b509392505050565b600082601f830112610d2d57610d2c610c00565b5b8135610d3d848260208601610cd6565b91505092915050565b6000819050919050565b610d5981610d46565b8114610d6457600080fd5b50565b600081359050610d7681610d50565b92915050565b60008060408385031215610d9357610d92610bf6565b5b600083013567ffffffffffffffff811115610db157610db0610bfb565b5b610dbd85828601610d18565b9250506020610dce85828601610d67565b9150509250929050565b600060208284031215610dee57610ded610bf6565b5b600082013567ffffffffffffffff811115610e0c57610e0b610bfb565b5b610e1884828501610d18565b91505092915050565b600073ffffffffffffffffffffffffffffffffffffffff82169050919050565b6000610e4c82610e21565b9050919050565b610e5c81610e41565b82525050565b6000602082019050610e776000830184610e53565b92915050565b6000819050919050565b610e9081610e7d565b82525050565b600060a082019050610eab6000830188610e87565b610eb86020830187610e87565b610ec56040830186610e87565b610ed26060830185610e87565b610edf6080830184610e53565b9695505050505050565b610ef281610e7d565b8114610efd57600080fd5b50565b600081359050610f0f81610ee9565b92915050565b600060208284031215610f2b57610f2a610bf6565b5b6000610f3984828501610f00565b91505092915050565b600081519050919050565b600082825260208201905092915050565b60005b83811015610f7c578082015181840152602081019050610f61565b60008484015250505050565b6000610f9382610f42565b610f9d8185610f4d565b9350610fad818560208601610f5e565b610fb681610c0a565b840191505092915050565b60006020820190508181036000830152610fdb8184610f88565b905092915050565b600081519050919050565b600082825260208201905092915050565b6000819050602082019050919050565b600082825260208201905092915050565b600061102b82610f42565b611035818561100f565b9350611045818560208601610f5e565b61104e81610c0a565b840191505092915050565b60006110658383611020565b905092915050565b6000602082019050919050565b600061108582610fe3565b61108f8185610fee565b9350836020820285016110a185610fff565b8060005b858110156110dd57848403895281516110be8582611059565b94506110c98361106d565b925060208a019950506001810190506110a5565b50829750879550505050505092915050565b60006020820190508181036000830152611109818461107a565b905092915050565b60008060006060848603121561112a57611129610bf6565b5b600084013567ffffffffffffffff81111561114857611147610bfb565b5b61115486828701610d18565b935050602061116586828701610d67565b925050604061117686828701610d67565b9150509250925092565b61118981610e41565b811461119457600080fd5b50565b6000813590506111a681611180565b92915050565b600080604083850312156111c3576111c2610bf6565b5b600083013567ffffffffffffffff8111156111e1576111e0610bfb565b5b6111ed85828601610d18565b92505060206111fe85828601611197565b9150509250929050565b61121181610d46565b82525050565b60008115159050919050565b61122c81611217565b82525050565b60006040820190506112476000830185611208565b6112546020830184611223565b9392505050565b600081905092915050565b600061127182610f42565b61127b818561125b565b935061128b818560208601610f5e565b80840191505092915050565b60006112a38284611266565b915081905092915050565b7f4e487b7100000000000000000000000000000000000000000000000000000000600052601160045260246000fd5b60006112e882610e7d565b91506112f383610e7d565b925082820190508082111561130b5761130a6112ae565b5b92915050565b7f4e487b7100000000000000000000000000000000000000000000000000000000600052602160045260246000fd5b7f4163636f756e7420616c72656164792062696464656420666f7220746869732060008201527f6164647265737300000000000000000000000000000000000000000000000000602082015250565b600061139c602783610f4d565b91506113a782611340565b604082019050919050565b600060208201905081810360008301526113cb8161138f565b9050919050565b7f41756374696f6e20646f6573206e6f7420657869737400000000000000000000600082015250565b6000611408601683610f4d565b9150611413826113d2565b602082019050919050565b60006020820190508181036000830152611437816113fb565b9050919050565b7f41756374696f6e207374696c6c206f6e676f696e670000000000000000000000600082015250565b6000611474601583610f4d565b915061147f8261143e565b602082019050919050565b600060208201905081810360008301526114a381611467565b9050919050565b7f4e487b7100000000000000000000000000000000000000000000000000000000600052602260045260246000fd5b600060028204905060018216806114f157607f821691505b602082108103611504576115036114aa565b5b50919050565b7f4e6f7420696e2072657665616c20706861736500000000000000000000000000600082015250565b6000611540601383610f4d565b915061154b8261150a565b602082019050919050565b6000602082019050818103600083015261156f81611533565b9050919050565b7f42696420616c72656164792072657665616c6564000000000000000000000000600082015250565b60006115ac601483610f4d565b91506115b782611576565b602082019050919050565b600060208201905081810360008301526115db8161159f565b9050919050565b6000819050919050565b6115fd6115f882610d46565b6115e2565b82525050565b600061160f82856115ec565b60208201915061161f82846115ec565b6020820191508190509392505050565b7f496e76616c69642072657665616c000000000000000000000000000000000000600082015250565b6000611665600e83610f4d565b91506116708261162f565b602082019050919050565b6000602082019050818103600083015261169481611658565b9050919050565b7f4e487b7100000000000000000000000000000000000000000000000000000000600052603260045260246000fd5b60008190508160005260206000209050919050565b600081546116ec816114d9565b6116f6818661125b565b94506001821660008114611711576001811461172657611759565b60ff1983168652811515820286019350611759565b61172f856116ca565b60005b8381101561175157815481890152600182019150602081019050611732565b838801955050505b50505092915050565b600061176e82846116df565b91508190509291505056fea264697066735822122033d875ca2d6886de495a868e0331bd24f0949e49f80f3a5259e181633867569d64736f6c634300081b0033",
  "linkReferences": {},
  "deployedLinkReferences": {}
}