{
  "_format": "hh-sol-artifact-1",
  "contractName": "DomainRegistrar",
  "sourceName": "contracts/DomainRegistrar.sol",
  "abi": [
    {
      "inputs": [],
      "stateMutability": "nonpayable",
      "type": "constructor"
    },
    {
      "anonymous": false,
      "inputs": [
        {
          "indexed": false,
          "internalType": "string",
          "name": "domain",
          "type": "string"
        }
      ],
      "name": "Bidded",
      "type": "event"
    },
    {
      "anonymous": false,
      "inputs": [],
      "name": "NoMatchingBid",
      "type": "event"
    },
    {
      "anonymous": false,
      "inputs": [
        {
          "indexed": false,
          "internalType": "uint256",
          "name": "amount",
          "type": "uint256"
        }
      ],
      "name": "Refunded",
      "type": "event"
    },
    {
      "anonymous": false,
      "inputs": [],
      "name": "Revealed",
      "type": "event"
    },
    {
      "inputs": [
        {
          "internalType": "string",
          "name": "",
          "type": "string"
        }
      ],
      "name": "auctions",
      "outputs": [
        {
          "internalType": "uint256",
          "name": "biddingEnd",
          "type": "uint256"
        },
        {
          "internalType": "uint256",
          "name": "revealEnd",
          "type": "uint256"
        },
        {
          "internalType": "uint256",
          "name": "highestBid",
          "type": "uint256"
        },
        {
          "internalType": "address",
          "name": "highestBidder",
          "type": "address"
        }
      ],
      "stateMutability": "view",
      "type": "function"
    },
    {
      "inputs": [
        {
          "internalType": "string",
          "name": "_domain",
          "type": "string"
        },
        {
          "internalType": "bytes32",
          "name": "_commitment",
          "type": "bytes32"
        },
        {
          "internalType": "address",
          "name": "sender",
          "type": "address"
        }
      ],
      "name": "bid",
      "outputs": [],
      "stateMutability": "payable",
      "type": "function"
    },
    {
      "inputs": [
        {
          "internalType": "uint256",
          "name": "",
          "type": "uint256"
        }
      ],
      "name": "domains",
      "outputs": [
        {
          "internalType": "string",
          "name": "",
          "type": "string"
        }
      ],
      "stateMutability": "view",
      "type": "function"
    },
    {
      "inputs": [
        {
          "internalType": "address",
          "name": "sender",
          "type": "address"
        }
      ],
      "name": "getAccountDomains",
      "outputs": [
        {
          "internalType": "string[]",
          "name": "",
          "type": "string[]"
        }
      ],
      "stateMutability": "view",
      "type": "function"
    },
    {
      "inputs": [],
      "name": "getBiddableDomains",
      "outputs": [
        {
          "internalType": "string[]",
          "name": "",
          "type": "string[]"
        }
      ],
      "stateMutability": "view",
      "type": "function"
    },
    {
      "inputs": [],
      "name": "getDomainsWithStatus",
      "outputs": [
        {
          "components": [
            {
              "internalType": "string",
              "name": "domain",
              "type": "string"
            },
            {
              "internalType": "string",
              "name": "status",
              "type": "string"
            },
            {
              "internalType": "address",
              "name": "owner",
              "type": "address"
            }
          ],
          "internalType": "struct DomainRegistrar.DomainInfo[]",
          "name": "",
          "type": "tuple[]"
        }
      ],
      "stateMutability": "view",
      "type": "function"
    },
    {
      "inputs": [
        {
          "internalType": "address",
          "name": "sender",
          "type": "address"
        }
      ],
      "name": "getPendingRefunds",
      "outputs": [
        {
          "internalType": "uint256",
          "name": "",
          "type": "uint256"
        }
      ],
      "stateMutability": "view",
      "type": "function"
    },
    {
      "inputs": [],
      "name": "getRevealableDomains",
      "outputs": [
        {
          "internalType": "string[]",
          "name": "",
          "type": "string[]"
        }
      ],
      "stateMutability": "view",
      "type": "function"
    },
    {
      "inputs": [
        {
          "internalType": "address",
          "name": "sender",
          "type": "address"
        }
      ],
      "name": "refund",
      "outputs": [],
      "stateMutability": "nonpayable",
      "type": "function"
    },
    {
      "inputs": [
        {
          "internalType": "string",
          "name": "_domain",
          "type": "string"
        },
        {
          "internalType": "bytes32",
          "name": "_amount",
          "type": "bytes32"
        },
        {
          "internalType": "bytes32",
          "name": "_secret",
          "type": "bytes32"
        },
        {
          "internalType": "address",
          "name": "sender",
          "type": "address"
        }
      ],
      "name": "reveal",
      "outputs": [],
      "stateMutability": "nonpayable",
      "type": "function"
    }
  ],
  "bytecode": "0x608060405234801561001057600080fd5b5060005b601a8110156100a457600061003a82606161002f91906100f0565b6100aa60201b60201c565b60405160200161004a91906101c8565b604051602081830303815290604052905060008190506000819080600181540180825580915050600190039060005260206000200160009091909190915090816100949190610434565b5050508080600101915050610014565b50610506565b60008160f81b9050919050565b6000819050919050565b7f4e487b7100000000000000000000000000000000000000000000000000000000600052601160045260246000fd5b60006100fb826100b7565b9150610106836100b7565b925082820190508082111561011e5761011d6100c1565b5b92915050565b60007fff0000000000000000000000000000000000000000000000000000000000000082169050919050565b6000819050919050565b61016b61016682610124565b610150565b82525050565b600081905092915050565b7f2e6e747500000000000000000000000000000000000000000000000000000000600082015250565b60006101b2600483610171565b91506101bd8261017c565b600482019050919050565b60006101d4828461015a565b6001820191506101e3826101a5565b915081905092915050565b600081519050919050565b7f4e487b7100000000000000000000000000000000000000000000000000000000600052604160045260246000fd5b7f4e487b7100000000000000000000000000000000000000000000000000000000600052602260045260246000fd5b6000600282049050600182168061026f57607f821691505b60208210810361028257610281610228565b5b50919050565b60008190508160005260206000209050919050565b60006020601f8301049050919050565b600082821b905092915050565b6000600883026102ea7fffffffffffffffffffffffffffffffffffffffffffffffffffffffffffffffff826102ad565b6102f486836102ad565b95508019841693508086168417925050509392505050565b6000819050919050565b600061033161032c610327846100b7565b61030c565b6100b7565b9050919050565b6000819050919050565b61034b83610316565b61035f61035782610338565b8484546102ba565b825550505050565b600090565b610374610367565b61037f818484610342565b505050565b5b818110156103a35761039860008261036c565b600181019050610385565b5050565b601f8211156103e8576103b981610288565b6103c28461029d565b810160208510156103d1578190505b6103e56103dd8561029d565b830182610384565b50505b505050565b600082821c905092915050565b600061040b600019846008026103ed565b1980831691505092915050565b600061042483836103fa565b9150826002028217905092915050565b61043d826101ee565b67ffffffffffffffff811115610456576104556101f9565b5b6104608254610257565b61046b8282856103a7565b600060209050601f83116001811461049e576000841561048c578287015190505b6104968582610418565b8655506104fe565b601f1984166104ac86610288565b60005b828110156104d4578489015182556001820191506020850194506020810190506104af565b868310156104f157848901516104ed601f8916826103fa565b8355505b6001600288020188555050505b505050505050565b612529806105156000396000f3fe6080604052600436106100915760003560e01c80636f28e0b8116100595780636f28e0b814610194578063b2eb8f6c146101bf578063b76b1618146101ea578063dd2f30e91461022a578063fa89401a1461025357610091565b80631b82b8551461009657806340a7ba0e146100c1578063415e13ca146100dd57806347ff8c601461011a57806366cf8fab14610157575b600080fd5b3480156100a257600080fd5b506100ab61027c565b6040516100b89190611af7565b60405180910390f35b6100db60048036038101906100d69190611cf6565b6104e2565b005b3480156100e957600080fd5b5061010460048036038101906100ff9190611d65565b6107b7565b6040516101119190611dab565b60405180910390f35b34801561012657600080fd5b50610141600480360381019061013c9190611d65565b610800565b60405161014e9190611af7565b60405180910390f35b34801561016357600080fd5b5061017e60048036038101906101799190611df2565b610a79565b60405161018b9190611e69565b60405180910390f35b3480156101a057600080fd5b506101a9610b25565b6040516101b69190611af7565b60405180910390f35b3480156101cb57600080fd5b506101d4610d5b565b6040516101e19190611fb3565b60405180910390f35b3480156101f657600080fd5b50610211600480360381019061020c9190611fd5565b6111db565b604051610221949392919061202d565b60405180910390f35b34801561023657600080fd5b50610251600480360381019061024c9190612072565b611241565b005b34801561025f57600080fd5b5061027a60048036038101906102759190611d65565b61167e565b005b60606000808054905067ffffffffffffffff81111561029e5761029d611b37565b5b6040519080825280602002602001820160405280156102d157816020015b60608152602001906001900390816102bc5790505b50905060005b6000805490508110156104da5760006103a86001600084815481106102ff576102fe6120f5565b5b906000526020600020016040516103169190612227565b90815260200160405180910390206040518060800160405290816000820154815260200160018201548152602001600282015481526020016003820160009054906101000a900473ffffffffffffffffffffffffffffffffffffffff1673ffffffffffffffffffffffffffffffffffffffff1673ffffffffffffffffffffffffffffffffffffffff1681525050611793565b9050600060038111156103be576103bd61223e565b5b8160038111156103d1576103d061223e565b5b14806104015750600160038111156103ec576103eb61223e565b5b8160038111156103ff576103fe61223e565b5b145b156104cc576000828154811061041a576104196120f5565b5b90600052602060002001805461042f90612153565b80601f016020809104026020016040519081016040528092919081815260200182805461045b90612153565b80156104a85780601f1061047d576101008083540402835291602001916104a8565b820191906000526020600020905b81548152906001019060200180831161048b57829003601f168201915b50505050508383815181106104c0576104bf6120f5565b5b60200260200101819052505b5080806001019150506102d7565b508091505090565b60006001846040516104f4919061229e565b908152602001604051809103902060000154036105e357604051806080016040528060784261052391906122e4565b815260200160f04261053591906122e4565b815260200160008152602001600073ffffffffffffffffffffffffffffffffffffffff1681525060018460405161056c919061229e565b908152602001604051809103902060008201518160000155602082015181600101556040820151816002015560608201518160030160006101000a81548173ffffffffffffffffffffffffffffffffffffffff021916908373ffffffffffffffffffffffffffffffffffffffff1602179055509050505b60006001846040516105f5919061229e565b90815260200160405180910390206040518060800160405290816000820154815260200160018201548152602001600282015481526020016003820160009054906101000a900473ffffffffffffffffffffffffffffffffffffffff1673ffffffffffffffffffffffffffffffffffffffff1673ffffffffffffffffffffffffffffffffffffffff1681525050905080600001514211156106cb576040517f08c379a00000000000000000000000000000000000000000000000000000000081526004016106c290612364565b60405180910390fd5b6002846040516106db919061229e565b908152602001604051809103902060008373ffffffffffffffffffffffffffffffffffffffff1673ffffffffffffffffffffffffffffffffffffffff1681526020019081526020016000206040518060400160405280858152602001348152509080600181540180825580915050600190039060005260206000209060020201600090919091909150600082015181600001556020820151816001015550507f71a9eab193f83337636831aa25f9978632e5948028e449ad84962b90381a501a846040516107a99190611e69565b60405180910390a150505050565b6000600360008373ffffffffffffffffffffffffffffffffffffffff1673ffffffffffffffffffffffffffffffffffffffff168152602001908152602001600020549050919050565b60606000808054905067ffffffffffffffff81111561082257610821611b37565b5b60405190808252806020026020018201604052801561085557816020015b60608152602001906001900390816108405790505b50905060005b600080549050811015610a6f5760006001600083815481106108805761087f6120f5565b5b906000526020600020016040516108979190612227565b90815260200160405180910390206040518060800160405290816000820154815260200160018201548152602001600282015481526020016003820160009054906101000a900473ffffffffffffffffffffffffffffffffffffffff1673ffffffffffffffffffffffffffffffffffffffff1673ffffffffffffffffffffffffffffffffffffffff16815250509050600061093182611793565b90506003808111156109465761094561223e565b5b8160038111156109595761095861223e565b5b14801561099557508573ffffffffffffffffffffffffffffffffffffffff16826060015173ffffffffffffffffffffffffffffffffffffffff16145b15610a6057600083815481106109ae576109ad6120f5565b5b9060005260206000200180546109c390612153565b80601f01602080910402602001604051908101604052809291908181526020018280546109ef90612153565b8015610a3c5780601f10610a1157610100808354040283529160200191610a3c565b820191906000526020600020905b815481529060010190602001808311610a1f57829003601f168201915b5050505050848481518110610a5457610a536120f5565b5b60200260200101819052505b5050808060010191505061085b565b5080915050919050565b60008181548110610a8957600080fd5b906000526020600020016000915090508054610aa490612153565b80601f0160208091040260200160405190810160405280929190818152602001828054610ad090612153565b8015610b1d5780601f10610af257610100808354040283529160200191610b1d565b820191906000526020600020905b815481529060010190602001808311610b0057829003601f168201915b505050505081565b60606000808054905067ffffffffffffffff811115610b4757610b46611b37565b5b604051908082528060200260200182016040528015610b7a57816020015b6060815260200190600190039081610b655790505b50905060005b600080549050811015610d53576000610c51600160008481548110610ba857610ba76120f5565b5b90600052602060002001604051610bbf9190612227565b90815260200160405180910390206040518060800160405290816000820154815260200160018201548152602001600282015481526020016003820160009054906101000a900473ffffffffffffffffffffffffffffffffffffffff1673ffffffffffffffffffffffffffffffffffffffff1673ffffffffffffffffffffffffffffffffffffffff1681525050611793565b905060026003811115610c6757610c6661223e565b5b816003811115610c7a57610c7961223e565b5b03610d455760008281548110610c9357610c926120f5565b5b906000526020600020018054610ca890612153565b80601f0160208091040260200160405190810160405280929190818152602001828054610cd490612153565b8015610d215780601f10610cf657610100808354040283529160200191610d21565b820191906000526020600020905b815481529060010190602001808311610d0457829003601f168201915b5050505050838381518110610d3957610d386120f5565b5b60200260200101819052505b508080600101915050610b80565b508091505090565b60606000808054905067ffffffffffffffff811115610d7d57610d7c611b37565b5b604051908082528060200260200182016040528015610db657816020015b610da3611964565b815260200190600190039081610d9b5790505b50905060005b6000805490508110156111d3576000610e8d600160008481548110610de457610de36120f5565b5b90600052602060002001604051610dfb9190612227565b90815260200160405180910390206040518060800160405290816000820154815260200160018201548152602001600282015481526020016003820160009054906101000a900473ffffffffffffffffffffffffffffffffffffffff1673ffffffffffffffffffffffffffffffffffffffff1673ffffffffffffffffffffffffffffffffffffffff1681525050611793565b90506000600160008481548110610ea757610ea66120f5565b5b90600052602060002001604051610ebe9190612227565b90815260200160405180910390206040518060800160405290816000820154815260200160018201548152602001600282015481526020016003820160009054906101000a900473ffffffffffffffffffffffffffffffffffffffff1673ffffffffffffffffffffffffffffffffffffffff1673ffffffffffffffffffffffffffffffffffffffff1681525050905060606000806003811115610f6457610f6361223e565b5b846003811115610f7757610f7661223e565b5b03610fb9576040518060400160405280600981526020017f417661696c61626c65000000000000000000000000000000000000000000000081525091506110cd565b60016003811115610fcd57610fcc61223e565b5b846003811115610fe057610fdf61223e565b5b03611022576040518060400160405280600781526020017f42696464696e670000000000000000000000000000000000000000000000000081525091506110cc565b600260038111156110365761103561223e565b5b8460038111156110495761104861223e565b5b0361108b576040518060400160405280600981526020017f52657665616c696e67000000000000000000000000000000000000000000000081525091506110cb565b6040518060400160405280600a81526020017f52656769737465726564000000000000000000000000000000000000000000008152509150826060015190505b5b5b6040518060600160405280600087815481106110ec576110eb6120f5565b5b90600052602060002001805461110190612153565b80601f016020809104026020016040519081016040528092919081815260200182805461112d90612153565b801561117a5780601f1061114f5761010080835404028352916020019161117a565b820191906000526020600020905b81548152906001019060200180831161115d57829003601f168201915b505050505081526020018381526020018273ffffffffffffffffffffffffffffffffffffffff168152508686815181106111b7576111b66120f5565b5b6020026020010181905250505050508080600101915050610dbc565b508091505090565b6001818051602081018201805184825260208301602085012081835280955050505050506000915090508060000154908060010154908060020154908060030160009054906101000a900473ffffffffffffffffffffffffffffffffffffffff16905084565b6000600185604051611253919061229e565b9081526020016040518091039020905060008160000154036112aa576040517f08c379a00000000000000000000000000000000000000000000000000000000081526004016112a1906123d0565b60405180910390fd5b8060000154421180156112c1575080600101544211155b611300576040517f08c379a00000000000000000000000000000000000000000000000000000000081526004016112f79061243c565b60405180910390fd5b6000805b600287604051611314919061229e565b908152602001604051809103902060008573ffffffffffffffffffffffffffffffffffffffff1673ffffffffffffffffffffffffffffffffffffffff1681526020019081526020016000208054905081101561161157600060028860405161137c919061229e565b908152602001604051809103902060008673ffffffffffffffffffffffffffffffffffffffff1673ffffffffffffffffffffffffffffffffffffffff16815260200190815260200160002082815481106113d9576113d86120f5565b5b906000526020600020906002020190508060000154878760405160200161140192919061247d565b6040516020818303038152906040528051906020012003611603576001925083600201548160010154111561159657600073ffffffffffffffffffffffffffffffffffffffff168460030160009054906101000a900473ffffffffffffffffffffffffffffffffffffffff1673ffffffffffffffffffffffffffffffffffffffff1614611507578360020154600360008660030160009054906101000a900473ffffffffffffffffffffffffffffffffffffffff1673ffffffffffffffffffffffffffffffffffffffff1673ffffffffffffffffffffffffffffffffffffffff16815260200190815260200160002060008282546114ff91906122e4565b925050819055505b80600101548460020181905550848460030160006101000a81548173ffffffffffffffffffffffffffffffffffffffff021916908373ffffffffffffffffffffffffffffffffffffffff16021790555061156484600201546117ec565b6115918460030160009054906101000a900473ffffffffffffffffffffffffffffffffffffffff16611885565b6115f1565b8060010154600360008773ffffffffffffffffffffffffffffffffffffffff1673ffffffffffffffffffffffffffffffffffffffff16815260200190815260200160002060008282546115e991906122e4565b925050819055505b6000801b816000018190555050611611565b508080600101915050611304565b508015611649577fe2a7169cedebe39671840370ae19ca4fc41be6191d4c77f174f189a4d8cd08c860405160405180910390a1611676565b7f8d2c88e4c185a1c913efa1699c01d8c47b78fad277d35cf0f9503d88994331b160405160405180910390a15b505050505050565b6000600360008373ffffffffffffffffffffffffffffffffffffffff1673ffffffffffffffffffffffffffffffffffffffff1681526020019081526020016000205490506000811115611758573373ffffffffffffffffffffffffffffffffffffffff166108fc829081150290604051600060405180830381858888f19350505050158015611711573d6000803e3d6000fd5b506000600360008473ffffffffffffffffffffffffffffffffffffffff1673ffffffffffffffffffffffffffffffffffffffff168152602001908152602001600020819055505b7f3d2a04f53164bedf9a8a46353305d6b2d2261410406df3b41f99ce6489dc003c816040516117879190611dab565b60405180910390a15050565b6000808260000151036117a957600090506117e7565b816000015142116117bd57600190506117e7565b8160000151421180156117d4575081602001514211155b156117e257600290506117e7565b600390505b919050565b611882816040516024016118009190611dab565b6040516020818303038152906040527ff82c50f1000000000000000000000000000000000000000000000000000000007bffffffffffffffffffffffffffffffffffffffffffffffffffffffff19166020820180517bffffffffffffffffffffffffffffffffffffffffffffffffffffffff838183161783525050505061191e565b50565b61191b8160405160240161189991906124a9565b6040516020818303038152906040527f2c2ecbc2000000000000000000000000000000000000000000000000000000007bffffffffffffffffffffffffffffffffffffffffffffffffffffffff19166020820180517bffffffffffffffffffffffffffffffffffffffffffffffffffffffff838183161783525050505061191e565b50565b6119358161192d611938611959565b63ffffffff16565b50565b60006a636f6e736f6c652e6c6f679050600080835160208501845afa505050565b61199b819050919050565b60405180606001604052806060815260200160608152602001600073ffffffffffffffffffffffffffffffffffffffff1681525090565b6119a36124c4565b565b600081519050919050565b600082825260208201905092915050565b6000819050602082019050919050565b600081519050919050565b600082825260208201905092915050565b60005b83811015611a0b5780820151818401526020810190506119f0565b60008484015250505050565b6000601f19601f8301169050919050565b6000611a33826119d1565b611a3d81856119dc565b9350611a4d8185602086016119ed565b611a5681611a17565b840191505092915050565b6000611a6d8383611a28565b905092915050565b6000602082019050919050565b6000611a8d826119a5565b611a9781856119b0565b935083602082028501611aa9856119c1565b8060005b85811015611ae55784840389528151611ac68582611a61565b9450611ad183611a75565b925060208a01995050600181019050611aad565b50829750879550505050505092915050565b60006020820190508181036000830152611b118184611a82565b905092915050565b6000604051905090565b600080fd5b600080fd5b600080fd5b600080fd5b7f4e487b7100000000000000000000000000000000000000000000000000000000600052604160045260246000fd5b611b6f82611a17565b810181811067ffffffffffffffff82111715611b8e57611b8d611b37565b5b80604052505050565b6000611ba1611b19565b9050611bad8282611b66565b919050565b600067ffffffffffffffff821115611bcd57611bcc611b37565b5b611bd682611a17565b9050602081019050919050565b82818337600083830152505050565b6000611c05611c0084611bb2565b611b97565b905082815260208101848484011115611c2157611c20611b32565b5b611c2c848285611be3565b509392505050565b600082601f830112611c4957611c48611b2d565b5b8135611c59848260208601611bf2565b91505092915050565b6000819050919050565b611c7581611c62565b8114611c8057600080fd5b50565b600081359050611c9281611c6c565b92915050565b600073ffffffffffffffffffffffffffffffffffffffff82169050919050565b6000611cc382611c98565b9050919050565b611cd381611cb8565b8114611cde57600080fd5b50565b600081359050611cf081611cca565b92915050565b600080600060608486031215611d0f57611d0e611b23565b5b600084013567ffffffffffffffff811115611d2d57611d2c611b28565b5b611d3986828701611c34565b9350506020611d4a86828701611c83565b9250506040611d5b86828701611ce1565b9150509250925092565b600060208284031215611d7b57611d7a611b23565b5b6000611d8984828501611ce1565b91505092915050565b6000819050919050565b611da581611d92565b82525050565b6000602082019050611dc06000830184611d9c565b92915050565b611dcf81611d92565b8114611dda57600080fd5b50565b600081359050611dec81611dc6565b92915050565b600060208284031215611e0857611e07611b23565b5b6000611e1684828501611ddd565b91505092915050565b600082825260208201905092915050565b6000611e3b826119d1565b611e458185611e1f565b9350611e558185602086016119ed565b611e5e81611a17565b840191505092915050565b60006020820190508181036000830152611e838184611e30565b905092915050565b600081519050919050565b600082825260208201905092915050565b6000819050602082019050919050565b611ec081611cb8565b82525050565b60006060830160008301518482036000860152611ee38282611a28565b91505060208301518482036020860152611efd8282611a28565b9150506040830151611f126040860182611eb7565b508091505092915050565b6000611f298383611ec6565b905092915050565b6000602082019050919050565b6000611f4982611e8b565b611f538185611e96565b935083602082028501611f6585611ea7565b8060005b85811015611fa15784840389528151611f828582611f1d565b9450611f8d83611f31565b925060208a01995050600181019050611f69565b50829750879550505050505092915050565b60006020820190508181036000830152611fcd8184611f3e565b905092915050565b600060208284031215611feb57611fea611b23565b5b600082013567ffffffffffffffff81111561200957612008611b28565b5b61201584828501611c34565b91505092915050565b61202781611cb8565b82525050565b60006080820190506120426000830187611d9c565b61204f6020830186611d9c565b61205c6040830185611d9c565b612069606083018461201e565b95945050505050565b6000806000806080858703121561208c5761208b611b23565b5b600085013567ffffffffffffffff8111156120aa576120a9611b28565b5b6120b687828801611c34565b94505060206120c787828801611c83565b93505060406120d887828801611c83565b92505060606120e987828801611ce1565b91505092959194509250565b7f4e487b7100000000000000000000000000000000000000000000000000000000600052603260045260246000fd5b7f4e487b7100000000000000000000000000000000000000000000000000000000600052602260045260246000fd5b6000600282049050600182168061216b57607f821691505b60208210810361217e5761217d612124565b5b50919050565b600081905092915050565b60008190508160005260206000209050919050565b600081546121b181612153565b6121bb8186612184565b945060018216600081146121d657600181146121eb5761221e565b60ff198316865281151582028601935061221e565b6121f48561218f565b60005b83811015612216578154818901526001820191506020810190506121f7565b838801955050505b50505092915050565b600061223382846121a4565b915081905092915050565b7f4e487b7100000000000000000000000000000000000000000000000000000000600052602160045260246000fd5b6000612278826119d1565b6122828185612184565b93506122928185602086016119ed565b80840191505092915050565b60006122aa828461226d565b915081905092915050565b7f4e487b7100000000000000000000000000000000000000000000000000000000600052601160045260246000fd5b60006122ef82611d92565b91506122fa83611d92565b9250828201905080821115612312576123116122b5565b5b92915050565b7f4e6f7420696e2062696464696e67207068617365000000000000000000000000600082015250565b600061234e601483611e1f565b915061235982612318565b602082019050919050565b6000602082019050818103600083015261237d81612341565b9050919050565b7f41756374696f6e20646f6573206e6f7420657869737400000000000000000000600082015250565b60006123ba601683611e1f565b91506123c582612384565b602082019050919050565b600060208201905081810360008301526123e9816123ad565b9050919050565b7f4e6f7420696e2072657665616c20706861736500000000000000000000000000600082015250565b6000612426601383611e1f565b9150612431826123f0565b602082019050919050565b6000602082019050818103600083015261245581612419565b9050919050565b6000819050919050565b61247761247282611c62565b61245c565b82525050565b60006124898285612466565b6020820191506124998284612466565b6020820191508190509392505050565b60006020820190506124be600083018461201e565b92915050565b7f4e487b7100000000000000000000000000000000000000000000000000000000600052605160045260246000fdfea264697066735822122012391596f371227288300fb7acfc8fef58ae9c7ffbf2dd63bc8c5d737cf85e0464736f6c634300081b0033",
  "linkReferences": {},
  "deployedLinkReferences": {}
}