{
  "_format": "hh-sol-artifact-1",
  "contractName": "DomainRegistrar",
  "sourceName": "contracts/DomainRegistrar.sol",
  "abi": [
    {
      "inputs": [],
      "stateMutability": "nonpayable",
      "type": "constructor"
    },
    {
      "anonymous": false,
      "inputs": [
        {
          "indexed": true,
          "internalType": "address",
          "name": "from",
          "type": "address"
        },
        {
          "indexed": false,
          "internalType": "string",
          "name": "domain",
          "type": "string"
        },
        {
          "indexed": false,
          "internalType": "uint256",
          "name": "amount",
          "type": "uint256"
        }
      ],
      "name": "Committed",
      "type": "event"
    },
    {
      "anonymous": false,
      "inputs": [
        {
          "indexed": true,
          "internalType": "address",
          "name": "from",
          "type": "address"
        },
        {
          "indexed": false,
          "internalType": "string",
          "name": "domain",
          "type": "string"
        }
      ],
      "name": "Revealed",
      "type": "event"
    },
    {
      "inputs": [
        {
          "internalType": "string",
          "name": "",
          "type": "string"
        }
      ],
      "name": "activeAuctions",
      "outputs": [
        {
          "internalType": "uint256",
          "name": "commitEnd",
          "type": "uint256"
        },
        {
          "internalType": "uint256",
          "name": "revealEnd",
          "type": "uint256"
        },
        {
          "internalType": "uint256",
          "name": "highestBid",
          "type": "uint256"
        },
        {
          "internalType": "address",
          "name": "highestBidder",
          "type": "address"
        }
      ],
      "stateMutability": "view",
      "type": "function"
    },
    {
      "inputs": [
        {
          "internalType": "string",
          "name": "_domain",
          "type": "string"
        },
        {
          "internalType": "bytes32",
          "name": "_commitment",
          "type": "bytes32"
        }
      ],
      "name": "commit",
      "outputs": [],
      "stateMutability": "payable",
      "type": "function"
    },
    {
      "inputs": [
        {
          "internalType": "uint256",
          "name": "",
          "type": "uint256"
        }
      ],
      "name": "domains",
      "outputs": [
        {
          "internalType": "string",
          "name": "",
          "type": "string"
        }
      ],
      "stateMutability": "view",
      "type": "function"
    },
    {
      "inputs": [
        {
          "internalType": "string",
          "name": "_domain",
          "type": "string"
        }
      ],
      "name": "getDomainOwner",
      "outputs": [
        {
          "internalType": "address",
          "name": "",
          "type": "address"
        }
      ],
      "stateMutability": "view",
      "type": "function"
    },
    {
      "inputs": [],
      "name": "getDomains",
      "outputs": [
        {
          "internalType": "string[]",
          "name": "",
          "type": "string[]"
        }
      ],
      "stateMutability": "view",
      "type": "function"
    },
    {
      "inputs": [],
      "name": "getDomainsWithStatus",
      "outputs": [
        {
          "components": [
            {
              "internalType": "string",
              "name": "domain",
              "type": "string"
            },
            {
              "internalType": "string",
              "name": "status",
              "type": "string"
            }
          ],
          "internalType": "struct DomainRegistrar.DomainWithStatus[]",
          "name": "",
          "type": "tuple[]"
        }
      ],
      "stateMutability": "view",
      "type": "function"
    },
    {
      "inputs": [
        {
          "internalType": "string",
          "name": "_domain",
          "type": "string"
        },
        {
          "internalType": "bytes32",
          "name": "_amount",
          "type": "bytes32"
        },
        {
          "internalType": "bytes32",
          "name": "_secret",
          "type": "bytes32"
        }
      ],
      "name": "reveal",
      "outputs": [],
      "stateMutability": "nonpayable",
      "type": "function"
    },
    {
      "inputs": [],
      "name": "withdraw",
      "outputs": [],
      "stateMutability": "nonpayable",
      "type": "function"
    }
  ],
  "bytecode": "0x608060405234801561001057600080fd5b5060005b601a81101561010257600061003a82606161002f919061014e565b61010860201b60201c565b60405160200161004a9190610226565b604051602081830303815290604052905060008190506000819080600181540180825580915050600190039060005260206000200160009091909190915090816100949190610492565b5060006001826040516100a791906105bf565b908152602001604051809103902060006101000a81548173ffffffffffffffffffffffffffffffffffffffff021916908373ffffffffffffffffffffffffffffffffffffffff16021790555050508080600101915050610014565b506105d6565b60008160f81b9050919050565b6000819050919050565b7f4e487b7100000000000000000000000000000000000000000000000000000000600052601160045260246000fd5b600061015982610115565b915061016483610115565b925082820190508082111561017c5761017b61011f565b5b92915050565b60007fff0000000000000000000000000000000000000000000000000000000000000082169050919050565b6000819050919050565b6101c96101c482610182565b6101ae565b82525050565b600081905092915050565b7f2e6e747500000000000000000000000000000000000000000000000000000000600082015250565b60006102106004836101cf565b915061021b826101da565b600482019050919050565b600061023282846101b8565b60018201915061024182610203565b915081905092915050565b600081519050919050565b7f4e487b7100000000000000000000000000000000000000000000000000000000600052604160045260246000fd5b7f4e487b7100000000000000000000000000000000000000000000000000000000600052602260045260246000fd5b600060028204905060018216806102cd57607f821691505b6020821081036102e0576102df610286565b5b50919050565b60008190508160005260206000209050919050565b60006020601f8301049050919050565b600082821b905092915050565b6000600883026103487fffffffffffffffffffffffffffffffffffffffffffffffffffffffffffffffff8261030b565b610352868361030b565b95508019841693508086168417925050509392505050565b6000819050919050565b600061038f61038a61038584610115565b61036a565b610115565b9050919050565b6000819050919050565b6103a983610374565b6103bd6103b582610396565b848454610318565b825550505050565b600090565b6103d26103c5565b6103dd8184846103a0565b505050565b5b81811015610401576103f66000826103ca565b6001810190506103e3565b5050565b601f82111561044657610417816102e6565b610420846102fb565b8101602085101561042f578190505b61044361043b856102fb565b8301826103e2565b50505b505050565b600082821c905092915050565b60006104696000198460080261044b565b1980831691505092915050565b60006104828383610458565b9150826002028217905092915050565b61049b8261024c565b67ffffffffffffffff8111156104b4576104b3610257565b5b6104be82546102b5565b6104c9828285610405565b600060209050601f8311600181146104fc57600084156104ea578287015190505b6104f48582610476565b86555061055c565b601f19841661050a866102e6565b60005b828110156105325784890151825560018201915060208501945060208101905061050d565b8683101561054f578489015161054b601f891682610458565b8355505b6001600288020188555050505b505050505050565b60005b83811015610582578082015181840152602081019050610567565b60008484015250505050565b60006105998261024c565b6105a381856101cf565b93506105b3818560208601610564565b80840191505092915050565b60006105cb828461058e565b915081905092915050565b611a90806105e56000396000f3fe60806040526004361061007b5760003560e01c80639101cc651161004e5780639101cc6514610151578063b2eb8f6c1461017c578063f93d4db1146101a7578063fe945724146101c35761007b565b8063259701151461008057806326dfa85c146100bd5780633ccfd60b146100fd57806366cf8fab14610114575b600080fd5b34801561008c57600080fd5b506100a760048036038101906100a291906110e5565b6101ec565b6040516100b4919061116f565b60405180910390f35b3480156100c957600080fd5b506100e460048036038101906100df91906110e5565b6102c9565b6040516100f494939291906111a3565b60405180910390f35b34801561010957600080fd5b5061011261032f565b005b34801561012057600080fd5b5061013b60048036038101906101369190611214565b61040c565b60405161014891906112c0565b60405180910390f35b34801561015d57600080fd5b506101666104b8565b60405161017391906113ee565b60405180910390f35b34801561018857600080fd5b50610191610591565b60405161019e9190611516565b60405180910390f35b6101c160048036038101906101bc919061156e565b6108d4565b005b3480156101cf57600080fd5b506101ea60048036038101906101e591906115ca565b610bc1565b005b6000806002836040516101ff9190611675565b908152602001604051809103902090506000816000015403610256576040517f08c379a000000000000000000000000000000000000000000000000000000000815260040161024d906116d8565b60405180910390fd5b8060000154421161029c576040517f08c379a000000000000000000000000000000000000000000000000000000000815260040161029390611744565b60405180910390fd5b8060030160009054906101000a900473ffffffffffffffffffffffffffffffffffffffff16915050919050565b6002818051602081018201805184825260208301602085012081835280955050505050506000915090508060000154908060010154908060020154908060030160009054906101000a900473ffffffffffffffffffffffffffffffffffffffff16905084565b6000600460003373ffffffffffffffffffffffffffffffffffffffff1673ffffffffffffffffffffffffffffffffffffffff1681526020019081526020016000205490506000811115610409573373ffffffffffffffffffffffffffffffffffffffff166108fc829081150290604051600060405180830381858888f193505050501580156103c2573d6000803e3d6000fd5b506000600460003373ffffffffffffffffffffffffffffffffffffffff1673ffffffffffffffffffffffffffffffffffffffff168152602001908152602001600020819055505b50565b6000818154811061041c57600080fd5b90600052602060002001600091509050805461043790611793565b80601f016020809104026020016040519081016040528092919081815260200182805461046390611793565b80156104b05780601f10610485576101008083540402835291602001916104b0565b820191906000526020600020905b81548152906001019060200180831161049357829003601f168201915b505050505081565b60606000805480602002602001604051908101604052809291908181526020016000905b828210156105885783829060005260206000200180546104fb90611793565b80601f016020809104026020016040519081016040528092919081815260200182805461052790611793565b80156105745780601f1061054957610100808354040283529160200191610574565b820191906000526020600020905b81548152906001019060200180831161055757829003601f168201915b5050505050815260200190600101906104dc565b50505050905090565b60606000808054905067ffffffffffffffff8111156105b3576105b2610fba565b5b6040519080825280602002602001820160405280156105ec57816020015b6105d9610f71565b8152602001906001900390816105d15790505b50905060005b6000805490508110156108cc576000600260008381548110610617576106166117c4565b5b9060005260206000200160405161062e919061188b565b90815260200160405180910390206040518060800160405290816000820154815260200160018201548152602001600282015481526020016003820160009054906101000a900473ffffffffffffffffffffffffffffffffffffffff1673ffffffffffffffffffffffffffffffffffffffff1673ffffffffffffffffffffffffffffffffffffffff1681525050905060606000826000015103610708576040518060400160405280600981526020017f417661696c61626c65000000000000000000000000000000000000000000000081525090506107e4565b81600001514211610750576040518060400160405280600681526020017f436f6d6d6974000000000000000000000000000000000000000000000000000081525090506107e3565b816000015142118015610767575081602001514211155b156107a9576040518060400160405280600681526020017f52657665616c000000000000000000000000000000000000000000000000000081525090506107e2565b6040518060400160405280600a81526020017f526567697374657265640000000000000000000000000000000000000000000081525090505b5b5b604051806040016040528060008581548110610803576108026117c4565b5b90600052602060002001805461081890611793565b80601f016020809104026020016040519081016040528092919081815260200182805461084490611793565b80156108915780601f1061086657610100808354040283529160200191610891565b820191906000526020600020905b81548152906001019060200180831161087457829003601f168201915b50505050508152602001828152508484815181106108b2576108b16117c4565b5b6020026020010181905250505080806001019150506105f2565b508091505090565b60006002836040516108e69190611675565b908152602001604051809103902060000154036109d5576040518060800160405280603c4261091591906118d1565b815260200160784261092791906118d1565b815260200160008152602001600073ffffffffffffffffffffffffffffffffffffffff1681525060028360405161095e9190611675565b908152602001604051809103902060008201518160000155602082015181600101556040820151816002015560608201518160030160006101000a81548173ffffffffffffffffffffffffffffffffffffffff021916908373ffffffffffffffffffffffffffffffffffffffff1602179055509050505b60006002836040516109e79190611675565b90815260200160405180910390206040518060800160405290816000820154815260200160018201548152602001600282015481526020016003820160009054906101000a900473ffffffffffffffffffffffffffffffffffffffff1673ffffffffffffffffffffffffffffffffffffffff1673ffffffffffffffffffffffffffffffffffffffff168152505090508060000151421115610abd576040517f08c379a0000000000000000000000000000000000000000000000000000000008152600401610ab490611951565b60405180910390fd5b600383604051610acd9190611675565b908152602001604051809103902060003373ffffffffffffffffffffffffffffffffffffffff1673ffffffffffffffffffffffffffffffffffffffff1681526020019081526020016000206040518060400160405280848152602001348152509080600181540180825580915050600190039060005260206000209060020201600090919091909150600082015181600001556020820151816001015550503373ffffffffffffffffffffffffffffffffffffffff167f9ad51084ac072255fcf9e850c3e6cc6a0b0e41dfd8d84a26a654d6b0273c582b8434604051610bb4929190611971565b60405180910390a2505050565b6000600284604051610bd39190611675565b90815260200160405180910390206040518060800160405290816000820154815260200160018201548152602001600282015481526020016003820160009054906101000a900473ffffffffffffffffffffffffffffffffffffffff1673ffffffffffffffffffffffffffffffffffffffff1673ffffffffffffffffffffffffffffffffffffffff168152505090506000816000015103610ca9576040517f08c379a0000000000000000000000000000000000000000000000000000000008152600401610ca0906116d8565b60405180910390fd5b806000015142118015610cc0575080602001514211155b610cff576040517f08c379a0000000000000000000000000000000000000000000000000000000008152600401610cf6906119ed565b60405180910390fd5b60005b600385604051610d129190611675565b908152602001604051809103902060003373ffffffffffffffffffffffffffffffffffffffff1673ffffffffffffffffffffffffffffffffffffffff16815260200190815260200160002080549050811015610f1c576000600386604051610d7a9190611675565b908152602001604051809103902060003373ffffffffffffffffffffffffffffffffffffffff1673ffffffffffffffffffffffffffffffffffffffff1681526020019081526020016000208281548110610dd757610dd66117c4565b5b9060005260206000209060020201905080600001548585604051602001610dff929190611a2e565b6040516020818303038152906040528051906020012003610f0e57826040015181600101541115610f0857600073ffffffffffffffffffffffffffffffffffffffff16836060015173ffffffffffffffffffffffffffffffffffffffff1614610ec157826040015160046000856060015173ffffffffffffffffffffffffffffffffffffffff1673ffffffffffffffffffffffffffffffffffffffff1681526020019081526020016000206000828254610eb991906118d1565b925050819055505b806001015483604001818152505033836060019073ffffffffffffffffffffffffffffffffffffffff16908173ffffffffffffffffffffffffffffffffffffffff16815250505b50610f1c565b508080600101915050610d02565b503373ffffffffffffffffffffffffffffffffffffffff167fee22ca58eb93549cf1b11737946f98a22ff5191a499f5839f6a9e7eb40dcb15285604051610f6391906112c0565b60405180910390a250505050565b604051806040016040528060608152602001606081525090565b6000604051905090565b600080fd5b600080fd5b600080fd5b600080fd5b6000601f19601f8301169050919050565b7f4e487b7100000000000000000000000000000000000000000000000000000000600052604160045260246000fd5b610ff282610fa9565b810181811067ffffffffffffffff8211171561101157611010610fba565b5b80604052505050565b6000611024610f8b565b90506110308282610fe9565b919050565b600067ffffffffffffffff8211156110505761104f610fba565b5b61105982610fa9565b9050602081019050919050565b82818337600083830152505050565b600061108861108384611035565b61101a565b9050828152602081018484840111156110a4576110a3610fa4565b5b6110af848285611066565b509392505050565b600082601f8301126110cc576110cb610f9f565b5b81356110dc848260208601611075565b91505092915050565b6000602082840312156110fb576110fa610f95565b5b600082013567ffffffffffffffff81111561111957611118610f9a565b5b611125848285016110b7565b91505092915050565b600073ffffffffffffffffffffffffffffffffffffffff82169050919050565b60006111598261112e565b9050919050565b6111698161114e565b82525050565b60006020820190506111846000830184611160565b92915050565b6000819050919050565b61119d8161118a565b82525050565b60006080820190506111b86000830187611194565b6111c56020830186611194565b6111d26040830185611194565b6111df6060830184611160565b95945050505050565b6111f18161118a565b81146111fc57600080fd5b50565b60008135905061120e816111e8565b92915050565b60006020828403121561122a57611229610f95565b5b6000611238848285016111ff565b91505092915050565b600081519050919050565b600082825260208201905092915050565b60005b8381101561127b578082015181840152602081019050611260565b60008484015250505050565b600061129282611241565b61129c818561124c565b93506112ac81856020860161125d565b6112b581610fa9565b840191505092915050565b600060208201905081810360008301526112da8184611287565b905092915050565b600081519050919050565b600082825260208201905092915050565b6000819050602082019050919050565b600082825260208201905092915050565b600061132a82611241565b611334818561130e565b935061134481856020860161125d565b61134d81610fa9565b840191505092915050565b6000611364838361131f565b905092915050565b6000602082019050919050565b6000611384826112e2565b61138e81856112ed565b9350836020820285016113a0856112fe565b8060005b858110156113dc57848403895281516113bd8582611358565b94506113c88361136c565b925060208a019950506001810190506113a4565b50829750879550505050505092915050565b600060208201905081810360008301526114088184611379565b905092915050565b600081519050919050565b600082825260208201905092915050565b6000819050602082019050919050565b60006040830160008301518482036000860152611459828261131f565b91505060208301518482036020860152611473828261131f565b9150508091505092915050565b600061148c838361143c565b905092915050565b6000602082019050919050565b60006114ac82611410565b6114b6818561141b565b9350836020820285016114c88561142c565b8060005b8581101561150457848403895281516114e58582611480565b94506114f083611494565b925060208a019950506001810190506114cc565b50829750879550505050505092915050565b6000602082019050818103600083015261153081846114a1565b905092915050565b6000819050919050565b61154b81611538565b811461155657600080fd5b50565b60008135905061156881611542565b92915050565b6000806040838503121561158557611584610f95565b5b600083013567ffffffffffffffff8111156115a3576115a2610f9a565b5b6115af858286016110b7565b92505060206115c085828601611559565b9150509250929050565b6000806000606084860312156115e3576115e2610f95565b5b600084013567ffffffffffffffff81111561160157611600610f9a565b5b61160d868287016110b7565b935050602061161e86828701611559565b925050604061162f86828701611559565b9150509250925092565b600081905092915050565b600061164f82611241565b6116598185611639565b935061166981856020860161125d565b80840191505092915050565b60006116818284611644565b915081905092915050565b7f41756374696f6e20646f6573206e6f7420657869737400000000000000000000600082015250565b60006116c260168361124c565b91506116cd8261168c565b602082019050919050565b600060208201905081810360008301526116f1816116b5565b9050919050565b7f41756374696f6e207374696c6c206f6e676f696e670000000000000000000000600082015250565b600061172e60158361124c565b9150611739826116f8565b602082019050919050565b6000602082019050818103600083015261175d81611721565b9050919050565b7f4e487b7100000000000000000000000000000000000000000000000000000000600052602260045260246000fd5b600060028204905060018216806117ab57607f821691505b6020821081036117be576117bd611764565b5b50919050565b7f4e487b7100000000000000000000000000000000000000000000000000000000600052603260045260246000fd5b60008190508160005260206000209050919050565b6000815461181581611793565b61181f8186611639565b9450600182166000811461183a576001811461184f57611882565b60ff1983168652811515820286019350611882565b611858856117f3565b60005b8381101561187a5781548189015260018201915060208101905061185b565b838801955050505b50505092915050565b60006118978284611808565b915081905092915050565b7f4e487b7100000000000000000000000000000000000000000000000000000000600052601160045260246000fd5b60006118dc8261118a565b91506118e78361118a565b92508282019050808211156118ff576118fe6118a2565b5b92915050565b7f4e6f7420696e20636f6d6d697420706861736500000000000000000000000000600082015250565b600061193b60138361124c565b915061194682611905565b602082019050919050565b6000602082019050818103600083015261196a8161192e565b9050919050565b6000604082019050818103600083015261198b8185611287565b905061199a6020830184611194565b9392505050565b7f4e6f7420696e2072657665616c20706861736500000000000000000000000000600082015250565b60006119d760138361124c565b91506119e2826119a1565b602082019050919050565b60006020820190508181036000830152611a06816119ca565b9050919050565b6000819050919050565b611a28611a2382611538565b611a0d565b82525050565b6000611a3a8285611a17565b602082019150611a4a8284611a17565b602082019150819050939250505056fea2646970667358221220e66e932cd1cc445d404f934c76be37d74ceee5bbd2bc602dc451b288290ec57464736f6c634300081b0033",
  "linkReferences": {},
  "deployedLinkReferences": {}
}