{
  "_format": "hh-sol-artifact-1",
  "contractName": "DomainRegistrar",
  "sourceName": "contracts/DomainRegistrar.sol",
  "abi": [
    {
      "inputs": [],
      "stateMutability": "nonpayable",
      "type": "constructor"
    },
    {
      "anonymous": false,
      "inputs": [
        {
          "indexed": false,
          "internalType": "string",
          "name": "domain",
          "type": "string"
        }
      ],
      "name": "Bidded",
      "type": "event"
    },
    {
      "anonymous": false,
      "inputs": [],
      "name": "NoMatchingBid",
      "type": "event"
    },
    {
      "anonymous": false,
      "inputs": [
        {
          "indexed": false,
          "internalType": "uint256",
          "name": "amount",
          "type": "uint256"
        }
      ],
      "name": "Refunded",
      "type": "event"
    },
    {
      "anonymous": false,
      "inputs": [],
      "name": "Revealed",
      "type": "event"
    },
    {
      "inputs": [
        {
          "internalType": "string",
          "name": "",
          "type": "string"
        }
      ],
      "name": "auctions",
      "outputs": [
        {
          "internalType": "uint256",
          "name": "biddingEnd",
          "type": "uint256"
        },
        {
          "internalType": "uint256",
          "name": "revealEnd",
          "type": "uint256"
        },
        {
          "internalType": "uint256",
          "name": "highestBid",
          "type": "uint256"
        },
        {
          "internalType": "address",
          "name": "highestBidder",
          "type": "address"
        }
      ],
      "stateMutability": "view",
      "type": "function"
    },
    {
      "inputs": [
        {
          "internalType": "string",
          "name": "_domain",
          "type": "string"
        },
        {
          "internalType": "bytes32",
          "name": "_commitment",
          "type": "bytes32"
        },
        {
          "internalType": "address",
          "name": "sender",
          "type": "address"
        }
      ],
      "name": "bid",
      "outputs": [],
      "stateMutability": "payable",
      "type": "function"
    },
    {
      "inputs": [
        {
          "internalType": "uint256",
          "name": "",
          "type": "uint256"
        }
      ],
      "name": "domains",
      "outputs": [
        {
          "internalType": "string",
          "name": "",
          "type": "string"
        }
      ],
      "stateMutability": "view",
      "type": "function"
    },
    {
      "inputs": [
        {
          "internalType": "address",
          "name": "sender",
          "type": "address"
        }
      ],
      "name": "getAccountDomains",
      "outputs": [
        {
          "internalType": "string[]",
          "name": "",
          "type": "string[]"
        }
      ],
      "stateMutability": "view",
      "type": "function"
    },
    {
      "inputs": [],
      "name": "getBiddableDomains",
      "outputs": [
        {
          "internalType": "string[]",
          "name": "",
          "type": "string[]"
        }
      ],
      "stateMutability": "view",
      "type": "function"
    },
    {
      "inputs": [],
      "name": "getDomainsWithStatus",
      "outputs": [
        {
          "components": [
            {
              "internalType": "string",
              "name": "domain",
              "type": "string"
            },
            {
              "internalType": "string",
              "name": "status",
              "type": "string"
            }
          ],
          "internalType": "struct DomainRegistrar.DomainWithStatus[]",
          "name": "",
          "type": "tuple[]"
        }
      ],
      "stateMutability": "view",
      "type": "function"
    },
    {
      "inputs": [
        {
          "internalType": "address",
          "name": "sender",
          "type": "address"
        }
      ],
      "name": "getPendingRefunds",
      "outputs": [
        {
          "internalType": "uint256",
          "name": "",
          "type": "uint256"
        }
      ],
      "stateMutability": "view",
      "type": "function"
    },
    {
      "inputs": [],
      "name": "getRevealableDomains",
      "outputs": [
        {
          "internalType": "string[]",
          "name": "",
          "type": "string[]"
        }
      ],
      "stateMutability": "view",
      "type": "function"
    },
    {
      "inputs": [
        {
          "internalType": "address",
          "name": "sender",
          "type": "address"
        }
      ],
      "name": "refund",
      "outputs": [],
      "stateMutability": "nonpayable",
      "type": "function"
    },
    {
      "inputs": [
        {
          "internalType": "string",
          "name": "_domain",
          "type": "string"
        },
        {
          "internalType": "bytes32",
          "name": "_amount",
          "type": "bytes32"
        },
        {
          "internalType": "bytes32",
          "name": "_secret",
          "type": "bytes32"
        },
        {
          "internalType": "address",
          "name": "sender",
          "type": "address"
        }
      ],
      "name": "reveal",
      "outputs": [],
      "stateMutability": "nonpayable",
      "type": "function"
    }
  ],
  "bytecode": "0x608060405234801561001057600080fd5b5060005b601a81101561010257600061003a82606161002f919061014e565b61010860201b60201c565b60405160200161004a9190610226565b604051602081830303815290604052905060008190506000819080600181540180825580915050600190039060005260206000200160009091909190915090816100949190610492565b5060006001826040516100a791906105bf565b908152602001604051809103902060006101000a81548173ffffffffffffffffffffffffffffffffffffffff021916908373ffffffffffffffffffffffffffffffffffffffff16021790555050508080600101915050610014565b506105d6565b60008160f81b9050919050565b6000819050919050565b7f4e487b7100000000000000000000000000000000000000000000000000000000600052601160045260246000fd5b600061015982610115565b915061016483610115565b925082820190508082111561017c5761017b61011f565b5b92915050565b60007fff0000000000000000000000000000000000000000000000000000000000000082169050919050565b6000819050919050565b6101c96101c482610182565b6101ae565b82525050565b600081905092915050565b7f2e6e747500000000000000000000000000000000000000000000000000000000600082015250565b60006102106004836101cf565b915061021b826101da565b600482019050919050565b600061023282846101b8565b60018201915061024182610203565b915081905092915050565b600081519050919050565b7f4e487b7100000000000000000000000000000000000000000000000000000000600052604160045260246000fd5b7f4e487b7100000000000000000000000000000000000000000000000000000000600052602260045260246000fd5b600060028204905060018216806102cd57607f821691505b6020821081036102e0576102df610286565b5b50919050565b60008190508160005260206000209050919050565b60006020601f8301049050919050565b600082821b905092915050565b6000600883026103487fffffffffffffffffffffffffffffffffffffffffffffffffffffffffffffffff8261030b565b610352868361030b565b95508019841693508086168417925050509392505050565b6000819050919050565b600061038f61038a61038584610115565b61036a565b610115565b9050919050565b6000819050919050565b6103a983610374565b6103bd6103b582610396565b848454610318565b825550505050565b600090565b6103d26103c5565b6103dd8184846103a0565b505050565b5b81811015610401576103f66000826103ca565b6001810190506103e3565b5050565b601f82111561044657610417816102e6565b610420846102fb565b8101602085101561042f578190505b61044361043b856102fb565b8301826103e2565b50505b505050565b600082821c905092915050565b60006104696000198460080261044b565b1980831691505092915050565b60006104828383610458565b9150826002028217905092915050565b61049b8261024c565b67ffffffffffffffff8111156104b4576104b3610257565b5b6104be82546102b5565b6104c9828285610405565b600060209050601f8311600181146104fc57600084156104ea578287015190505b6104f48582610476565b86555061055c565b601f19841661050a866102e6565b60005b828110156105325784890151825560018201915060208501945060208101905061050d565b8683101561054f578489015161054b601f891682610458565b8355505b6001600288020188555050505b505050505050565b60005b83811015610582578082015181840152602081019050610567565b60008484015250505050565b60006105998261024c565b6105a381856101cf565b93506105b3818560208601610564565b80840191505092915050565b60006105cb828461058e565b915081905092915050565b61255b806105e56000396000f3fe6080604052600436106100915760003560e01c80636f28e0b8116100595780636f28e0b814610194578063b2eb8f6c146101bf578063b76b1618146101ea578063dd2f30e91461022a578063fa89401a1461025357610091565b80631b82b8551461009657806340a7ba0e146100c1578063415e13ca146100dd57806347ff8c601461011a57806366cf8fab14610157575b600080fd5b3480156100a257600080fd5b506100ab61027c565b6040516100b89190611b4b565b60405180910390f35b6100db60048036038101906100d69190611d4a565b6104e2565b005b3480156100e957600080fd5b5061010460048036038101906100ff9190611db9565b6107b7565b6040516101119190611dff565b60405180910390f35b34801561012657600080fd5b50610141600480360381019061013c9190611db9565b610800565b60405161014e9190611b4b565b60405180910390f35b34801561016357600080fd5b5061017e60048036038101906101799190611e46565b610b35565b60405161018b9190611ebd565b60405180910390f35b3480156101a057600080fd5b506101a9610be1565b6040516101b69190611b4b565b60405180910390f35b3480156101cb57600080fd5b506101d4610e17565b6040516101e19190611fe5565b60405180910390f35b3480156101f657600080fd5b50610211600480360381019061020c9190612007565b6111b3565b604051610221949392919061205f565b60405180910390f35b34801561023657600080fd5b50610251600480360381019061024c91906120a4565b611219565b005b34801561025f57600080fd5b5061027a60048036038101906102759190611db9565b611656565b005b60606000808054905067ffffffffffffffff81111561029e5761029d611b8b565b5b6040519080825280602002602001820160405280156102d157816020015b60608152602001906001900390816102bc5790505b50905060005b6000805490508110156104da5760006103a86002600084815481106102ff576102fe612127565b5b906000526020600020016040516103169190612259565b90815260200160405180910390206040518060800160405290816000820154815260200160018201548152602001600282015481526020016003820160009054906101000a900473ffffffffffffffffffffffffffffffffffffffff1673ffffffffffffffffffffffffffffffffffffffff1673ffffffffffffffffffffffffffffffffffffffff168152505061176b565b9050600060038111156103be576103bd612270565b5b8160038111156103d1576103d0612270565b5b14806104015750600160038111156103ec576103eb612270565b5b8160038111156103ff576103fe612270565b5b145b156104cc576000828154811061041a57610419612127565b5b90600052602060002001805461042f90612185565b80601f016020809104026020016040519081016040528092919081815260200182805461045b90612185565b80156104a85780601f1061047d576101008083540402835291602001916104a8565b820191906000526020600020905b81548152906001019060200180831161048b57829003601f168201915b50505050508383815181106104c0576104bf612127565b5b60200260200101819052505b5080806001019150506102d7565b508091505090565b60006002846040516104f491906122d0565b908152602001604051809103902060000154036105e3576040518060800160405280603c426105239190612316565b81526020016078426105359190612316565b815260200160008152602001600073ffffffffffffffffffffffffffffffffffffffff1681525060028460405161056c91906122d0565b908152602001604051809103902060008201518160000155602082015181600101556040820151816002015560608201518160030160006101000a81548173ffffffffffffffffffffffffffffffffffffffff021916908373ffffffffffffffffffffffffffffffffffffffff1602179055509050505b60006002846040516105f591906122d0565b90815260200160405180910390206040518060800160405290816000820154815260200160018201548152602001600282015481526020016003820160009054906101000a900473ffffffffffffffffffffffffffffffffffffffff1673ffffffffffffffffffffffffffffffffffffffff1673ffffffffffffffffffffffffffffffffffffffff1681525050905080600001514211156106cb576040517f08c379a00000000000000000000000000000000000000000000000000000000081526004016106c290612396565b60405180910390fd5b6003846040516106db91906122d0565b908152602001604051809103902060008373ffffffffffffffffffffffffffffffffffffffff1673ffffffffffffffffffffffffffffffffffffffff1681526020019081526020016000206040518060400160405280858152602001348152509080600181540180825580915050600190039060005260206000209060020201600090919091909150600082015181600001556020820151816001015550507f71a9eab193f83337636831aa25f9978632e5948028e449ad84962b90381a501a846040516107a99190611ebd565b60405180910390a150505050565b6000600460008373ffffffffffffffffffffffffffffffffffffffff1673ffffffffffffffffffffffffffffffffffffffff168152602001908152602001600020549050919050565b60606000808054905067ffffffffffffffff81111561082257610821611b8b565b5b60405190808252806020026020018201604052801561085557816020015b60608152602001906001900390816108405790505b50905060005b600080549050811015610b2b5760006002600083815481106108805761087f612127565b5b906000526020600020016040516108979190612259565b90815260200160405180910390206040518060800160405290816000820154815260200160018201548152602001600282015481526020016003820160009054906101000a900473ffffffffffffffffffffffffffffffffffffffff1673ffffffffffffffffffffffffffffffffffffffff1673ffffffffffffffffffffffffffffffffffffffff1681525050905060006109318261176b565b90506109e26000848154811061094a57610949612127565b5b90600052602060002001805461095f90612185565b80601f016020809104026020016040519081016040528092919081815260200182805461098b90612185565b80156109d85780601f106109ad576101008083540402835291602001916109d8565b820191906000526020600020905b8154815290600101906020018083116109bb57829003601f168201915b50505050506117c4565b6109ef826060015161185d565b600380811115610a0257610a01612270565b5b816003811115610a1557610a14612270565b5b148015610a5157508573ffffffffffffffffffffffffffffffffffffffff16826060015173ffffffffffffffffffffffffffffffffffffffff16145b15610b1c5760008381548110610a6a57610a69612127565b5b906000526020600020018054610a7f90612185565b80601f0160208091040260200160405190810160405280929190818152602001828054610aab90612185565b8015610af85780601f10610acd57610100808354040283529160200191610af8565b820191906000526020600020905b815481529060010190602001808311610adb57829003601f168201915b5050505050848481518110610b1057610b0f612127565b5b60200260200101819052505b5050808060010191505061085b565b5080915050919050565b60008181548110610b4557600080fd5b906000526020600020016000915090508054610b6090612185565b80601f0160208091040260200160405190810160405280929190818152602001828054610b8c90612185565b8015610bd95780601f10610bae57610100808354040283529160200191610bd9565b820191906000526020600020905b815481529060010190602001808311610bbc57829003601f168201915b505050505081565b60606000808054905067ffffffffffffffff811115610c0357610c02611b8b565b5b604051908082528060200260200182016040528015610c3657816020015b6060815260200190600190039081610c215790505b50905060005b600080549050811015610e0f576000610d0d600260008481548110610c6457610c63612127565b5b90600052602060002001604051610c7b9190612259565b90815260200160405180910390206040518060800160405290816000820154815260200160018201548152602001600282015481526020016003820160009054906101000a900473ffffffffffffffffffffffffffffffffffffffff1673ffffffffffffffffffffffffffffffffffffffff1673ffffffffffffffffffffffffffffffffffffffff168152505061176b565b905060026003811115610d2357610d22612270565b5b816003811115610d3657610d35612270565b5b03610e015760008281548110610d4f57610d4e612127565b5b906000526020600020018054610d6490612185565b80601f0160208091040260200160405190810160405280929190818152602001828054610d9090612185565b8015610ddd5780601f10610db257610100808354040283529160200191610ddd565b820191906000526020600020905b815481529060010190602001808311610dc057829003601f168201915b5050505050838381518110610df557610df4612127565b5b60200260200101819052505b508080600101915050610c3c565b508091505090565b60606000808054905067ffffffffffffffff811115610e3957610e38611b8b565b5b604051908082528060200260200182016040528015610e7257816020015b610e5f6119d5565b815260200190600190039081610e575790505b50905060005b6000805490508110156111ab576000610f49600260008481548110610ea057610e9f612127565b5b90600052602060002001604051610eb79190612259565b90815260200160405180910390206040518060800160405290816000820154815260200160018201548152602001600282015481526020016003820160009054906101000a900473ffffffffffffffffffffffffffffffffffffffff1673ffffffffffffffffffffffffffffffffffffffff1673ffffffffffffffffffffffffffffffffffffffff168152505061176b565b9050606060006003811115610f6157610f60612270565b5b826003811115610f7457610f73612270565b5b03610fb6576040518060400160405280600981526020017f417661696c61626c65000000000000000000000000000000000000000000000081525090506110c3565b60016003811115610fca57610fc9612270565b5b826003811115610fdd57610fdc612270565b5b0361101f576040518060400160405280600781526020017f42696464696e670000000000000000000000000000000000000000000000000081525090506110c2565b6002600381111561103357611032612270565b5b82600381111561104657611045612270565b5b03611088576040518060400160405280600981526020017f52657665616c696e67000000000000000000000000000000000000000000000081525090506110c1565b6040518060400160405280600a81526020017f526567697374657265640000000000000000000000000000000000000000000081525090505b5b5b6040518060400160405280600085815481106110e2576110e1612127565b5b9060005260206000200180546110f790612185565b80601f016020809104026020016040519081016040528092919081815260200182805461112390612185565b80156111705780601f1061114557610100808354040283529160200191611170565b820191906000526020600020905b81548152906001019060200180831161115357829003601f168201915b505050505081526020018281525084848151811061119157611190612127565b5b602002602001018190525050508080600101915050610e78565b508091505090565b6002818051602081018201805184825260208301602085012081835280955050505050506000915090508060000154908060010154908060020154908060030160009054906101000a900473ffffffffffffffffffffffffffffffffffffffff16905084565b600060028560405161122b91906122d0565b908152602001604051809103902090506000816000015403611282576040517f08c379a000000000000000000000000000000000000000000000000000000000815260040161127990612402565b60405180910390fd5b806000015442118015611299575080600101544211155b6112d8576040517f08c379a00000000000000000000000000000000000000000000000000000000081526004016112cf9061246e565b60405180910390fd5b6000805b6003876040516112ec91906122d0565b908152602001604051809103902060008573ffffffffffffffffffffffffffffffffffffffff1673ffffffffffffffffffffffffffffffffffffffff168152602001908152602001600020805490508110156115e957600060038860405161135491906122d0565b908152602001604051809103902060008673ffffffffffffffffffffffffffffffffffffffff1673ffffffffffffffffffffffffffffffffffffffff16815260200190815260200160002082815481106113b1576113b0612127565b5b90600052602060002090600202019050806000015487876040516020016113d99291906124af565b60405160208183030381529060405280519060200120036115db576001925083600201548160010154111561156e57600073ffffffffffffffffffffffffffffffffffffffff168460030160009054906101000a900473ffffffffffffffffffffffffffffffffffffffff1673ffffffffffffffffffffffffffffffffffffffff16146114df578360020154600460008660030160009054906101000a900473ffffffffffffffffffffffffffffffffffffffff1673ffffffffffffffffffffffffffffffffffffffff1673ffffffffffffffffffffffffffffffffffffffff16815260200190815260200160002060008282546114d79190612316565b925050819055505b80600101548460020181905550848460030160006101000a81548173ffffffffffffffffffffffffffffffffffffffff021916908373ffffffffffffffffffffffffffffffffffffffff16021790555061153c84600201546118f6565b6115698460030160009054906101000a900473ffffffffffffffffffffffffffffffffffffffff1661185d565b6115c9565b8060010154600460008773ffffffffffffffffffffffffffffffffffffffff1673ffffffffffffffffffffffffffffffffffffffff16815260200190815260200160002060008282546115c19190612316565b925050819055505b6000801b8160000181905550506115e9565b5080806001019150506112dc565b508015611621577fe2a7169cedebe39671840370ae19ca4fc41be6191d4c77f174f189a4d8cd08c860405160405180910390a161164e565b7f8d2c88e4c185a1c913efa1699c01d8c47b78fad277d35cf0f9503d88994331b160405160405180910390a15b505050505050565b6000600460008373ffffffffffffffffffffffffffffffffffffffff1673ffffffffffffffffffffffffffffffffffffffff1681526020019081526020016000205490506000811115611730573373ffffffffffffffffffffffffffffffffffffffff166108fc829081150290604051600060405180830381858888f193505050501580156116e9573d6000803e3d6000fd5b506000600460008473ffffffffffffffffffffffffffffffffffffffff1673ffffffffffffffffffffffffffffffffffffffff168152602001908152602001600020819055505b7f3d2a04f53164bedf9a8a46353305d6b2d2261410406df3b41f99ce6489dc003c8160405161175f9190611dff565b60405180910390a15050565b60008082600001510361178157600090506117bf565b8160000151421161179557600190506117bf565b8160000151421180156117ac575081602001514211155b156117ba57600290506117bf565b600390505b919050565b61185a816040516024016117d89190611ebd565b6040516020818303038152906040527f41304fac000000000000000000000000000000000000000000000000000000007bffffffffffffffffffffffffffffffffffffffffffffffffffffffff19166020820180517bffffffffffffffffffffffffffffffffffffffffffffffffffffffff838183161783525050505061198f565b50565b6118f38160405160240161187191906124db565b6040516020818303038152906040527f2c2ecbc2000000000000000000000000000000000000000000000000000000007bffffffffffffffffffffffffffffffffffffffffffffffffffffffff19166020820180517bffffffffffffffffffffffffffffffffffffffffffffffffffffffff838183161783525050505061198f565b50565b61198c8160405160240161190a9190611dff565b6040516020818303038152906040527ff82c50f1000000000000000000000000000000000000000000000000000000007bffffffffffffffffffffffffffffffffffffffffffffffffffffffff19166020820180517bffffffffffffffffffffffffffffffffffffffffffffffffffffffff838183161783525050505061198f565b50565b6119a68161199e6119a96119ca565b63ffffffff16565b50565b60006a636f6e736f6c652e6c6f679050600080835160208501845afa505050565b6119ef819050919050565b604051806040016040528060608152602001606081525090565b6119f76124f6565b565b600081519050919050565b600082825260208201905092915050565b6000819050602082019050919050565b600081519050919050565b600082825260208201905092915050565b60005b83811015611a5f578082015181840152602081019050611a44565b60008484015250505050565b6000601f19601f8301169050919050565b6000611a8782611a25565b611a918185611a30565b9350611aa1818560208601611a41565b611aaa81611a6b565b840191505092915050565b6000611ac18383611a7c565b905092915050565b6000602082019050919050565b6000611ae1826119f9565b611aeb8185611a04565b935083602082028501611afd85611a15565b8060005b85811015611b395784840389528151611b1a8582611ab5565b9450611b2583611ac9565b925060208a01995050600181019050611b01565b50829750879550505050505092915050565b60006020820190508181036000830152611b658184611ad6565b905092915050565b6000604051905090565b600080fd5b600080fd5b600080fd5b600080fd5b7f4e487b7100000000000000000000000000000000000000000000000000000000600052604160045260246000fd5b611bc382611a6b565b810181811067ffffffffffffffff82111715611be257611be1611b8b565b5b80604052505050565b6000611bf5611b6d565b9050611c018282611bba565b919050565b600067ffffffffffffffff821115611c2157611c20611b8b565b5b611c2a82611a6b565b9050602081019050919050565b82818337600083830152505050565b6000611c59611c5484611c06565b611beb565b905082815260208101848484011115611c7557611c74611b86565b5b611c80848285611c37565b509392505050565b600082601f830112611c9d57611c9c611b81565b5b8135611cad848260208601611c46565b91505092915050565b6000819050919050565b611cc981611cb6565b8114611cd457600080fd5b50565b600081359050611ce681611cc0565b92915050565b600073ffffffffffffffffffffffffffffffffffffffff82169050919050565b6000611d1782611cec565b9050919050565b611d2781611d0c565b8114611d3257600080fd5b50565b600081359050611d4481611d1e565b92915050565b600080600060608486031215611d6357611d62611b77565b5b600084013567ffffffffffffffff811115611d8157611d80611b7c565b5b611d8d86828701611c88565b9350506020611d9e86828701611cd7565b9250506040611daf86828701611d35565b9150509250925092565b600060208284031215611dcf57611dce611b77565b5b6000611ddd84828501611d35565b91505092915050565b6000819050919050565b611df981611de6565b82525050565b6000602082019050611e146000830184611df0565b92915050565b611e2381611de6565b8114611e2e57600080fd5b50565b600081359050611e4081611e1a565b92915050565b600060208284031215611e5c57611e5b611b77565b5b6000611e6a84828501611e31565b91505092915050565b600082825260208201905092915050565b6000611e8f82611a25565b611e998185611e73565b9350611ea9818560208601611a41565b611eb281611a6b565b840191505092915050565b60006020820190508181036000830152611ed78184611e84565b905092915050565b600081519050919050565b600082825260208201905092915050565b6000819050602082019050919050565b60006040830160008301518482036000860152611f288282611a7c565b91505060208301518482036020860152611f428282611a7c565b9150508091505092915050565b6000611f5b8383611f0b565b905092915050565b6000602082019050919050565b6000611f7b82611edf565b611f858185611eea565b935083602082028501611f9785611efb565b8060005b85811015611fd35784840389528151611fb48582611f4f565b9450611fbf83611f63565b925060208a01995050600181019050611f9b565b50829750879550505050505092915050565b60006020820190508181036000830152611fff8184611f70565b905092915050565b60006020828403121561201d5761201c611b77565b5b600082013567ffffffffffffffff81111561203b5761203a611b7c565b5b61204784828501611c88565b91505092915050565b61205981611d0c565b82525050565b60006080820190506120746000830187611df0565b6120816020830186611df0565b61208e6040830185611df0565b61209b6060830184612050565b95945050505050565b600080600080608085870312156120be576120bd611b77565b5b600085013567ffffffffffffffff8111156120dc576120db611b7c565b5b6120e887828801611c88565b94505060206120f987828801611cd7565b935050604061210a87828801611cd7565b925050606061211b87828801611d35565b91505092959194509250565b7f4e487b7100000000000000000000000000000000000000000000000000000000600052603260045260246000fd5b7f4e487b7100000000000000000000000000000000000000000000000000000000600052602260045260246000fd5b6000600282049050600182168061219d57607f821691505b6020821081036121b0576121af612156565b5b50919050565b600081905092915050565b60008190508160005260206000209050919050565b600081546121e381612185565b6121ed81866121b6565b94506001821660008114612208576001811461221d57612250565b60ff1983168652811515820286019350612250565b612226856121c1565b60005b8381101561224857815481890152600182019150602081019050612229565b838801955050505b50505092915050565b600061226582846121d6565b915081905092915050565b7f4e487b7100000000000000000000000000000000000000000000000000000000600052602160045260246000fd5b60006122aa82611a25565b6122b481856121b6565b93506122c4818560208601611a41565b80840191505092915050565b60006122dc828461229f565b915081905092915050565b7f4e487b7100000000000000000000000000000000000000000000000000000000600052601160045260246000fd5b600061232182611de6565b915061232c83611de6565b9250828201905080821115612344576123436122e7565b5b92915050565b7f4e6f7420696e2062696464696e67207068617365000000000000000000000000600082015250565b6000612380601483611e73565b915061238b8261234a565b602082019050919050565b600060208201905081810360008301526123af81612373565b9050919050565b7f41756374696f6e20646f6573206e6f7420657869737400000000000000000000600082015250565b60006123ec601683611e73565b91506123f7826123b6565b602082019050919050565b6000602082019050818103600083015261241b816123df565b9050919050565b7f4e6f7420696e2072657665616c20706861736500000000000000000000000000600082015250565b6000612458601383611e73565b915061246382612422565b602082019050919050565b600060208201905081810360008301526124878161244b565b9050919050565b6000819050919050565b6124a96124a482611cb6565b61248e565b82525050565b60006124bb8285612498565b6020820191506124cb8284612498565b6020820191508190509392505050565b60006020820190506124f06000830184612050565b92915050565b7f4e487b7100000000000000000000000000000000000000000000000000000000600052605160045260246000fdfea264697066735822122099f75de165b52058517f0be9e90b579fed4ed49909e67096b2219c669980be1f64736f6c634300081b0033",
  "linkReferences": {},
  "deployedLinkReferences": {}
}