{
  "_format": "hh-sol-artifact-1",
  "contractName": "DomainRegistrar",
  "sourceName": "contracts/DomainRegistrar.sol",
  "abi": [
    {
      "inputs": [],
      "stateMutability": "nonpayable",
      "type": "constructor"
    },
    {
      "inputs": [
        {
          "internalType": "string",
          "name": "",
          "type": "string"
        }
      ],
      "name": "activeAuctions",
      "outputs": [
        {
          "internalType": "uint256",
          "name": "biddingStart",
          "type": "uint256"
        },
        {
          "internalType": "uint256",
          "name": "biddingEnd",
          "type": "uint256"
        },
        {
          "internalType": "uint256",
          "name": "revealEnd",
          "type": "uint256"
        },
        {
          "internalType": "uint256",
          "name": "highestBid",
          "type": "uint256"
        },
        {
          "internalType": "address",
          "name": "highestBidder",
          "type": "address"
        }
      ],
      "stateMutability": "view",
      "type": "function"
    },
    {
      "inputs": [
        {
          "internalType": "string",
          "name": "",
          "type": "string"
        },
        {
          "internalType": "address",
          "name": "",
          "type": "address"
        }
      ],
      "name": "bids",
      "outputs": [
        {
          "internalType": "bytes32",
          "name": "commitment",
          "type": "bytes32"
        },
        {
          "internalType": "bool",
          "name": "revealed",
          "type": "bool"
        }
      ],
      "stateMutability": "view",
      "type": "function"
    },
    {
      "inputs": [
        {
          "internalType": "string",
          "name": "_domain",
          "type": "string"
        },
        {
          "internalType": "bytes32",
          "name": "_commitment",
          "type": "bytes32"
        }
      ],
      "name": "commitBid",
      "outputs": [],
      "stateMutability": "payable",
      "type": "function"
    },
    {
      "inputs": [
        {
          "internalType": "uint256",
          "name": "",
          "type": "uint256"
        }
      ],
      "name": "domains",
      "outputs": [
        {
          "internalType": "string",
          "name": "",
          "type": "string"
        }
      ],
      "stateMutability": "view",
      "type": "function"
    },
    {
      "inputs": [],
      "name": "getDomains",
      "outputs": [
        {
          "internalType": "string[]",
          "name": "",
          "type": "string[]"
        }
      ],
      "stateMutability": "view",
      "type": "function"
    },
    {
      "inputs": [
        {
          "internalType": "string",
          "name": "_domain",
          "type": "string"
        },
        {
          "internalType": "bytes32",
          "name": "_amount",
          "type": "bytes32"
        },
        {
          "internalType": "bytes32",
          "name": "_secret",
          "type": "bytes32"
        }
      ],
      "name": "revealBid",
      "outputs": [],
      "stateMutability": "nonpayable",
      "type": "function"
    }
  ],
  "bytecode": "0x608060405234801561001057600080fd5b50600080600181540180825580915050600190039060005260206000200160006040518060400160405280600581526020017f612e6e7475000000000000000000000000000000000000000000000000000000815250909190915090816100779190610469565b50600080600181540180825580915050600190039060005260206000200160006040518060400160405280600581526020017f622e6e7475000000000000000000000000000000000000000000000000000000815250909190915090816100de9190610469565b50600080600181540180825580915050600190039060005260206000200160006040518060400160405280600581526020017f632e6e7475000000000000000000000000000000000000000000000000000000815250909190915090816101459190610469565b50600080600181540180825580915050600190039060005260206000200160006040518060400160405280600581526020017f642e6e7475000000000000000000000000000000000000000000000000000000815250909190915090816101ac9190610469565b50600080600181540180825580915050600190039060005260206000200160006040518060400160405280600581526020017f652e6e7475000000000000000000000000000000000000000000000000000000815250909190915090816102139190610469565b5061053b565b600081519050919050565b7f4e487b7100000000000000000000000000000000000000000000000000000000600052604160045260246000fd5b7f4e487b7100000000000000000000000000000000000000000000000000000000600052602260045260246000fd5b6000600282049050600182168061029a57607f821691505b6020821081036102ad576102ac610253565b5b50919050565b60008190508160005260206000209050919050565b60006020601f8301049050919050565b600082821b905092915050565b6000600883026103157fffffffffffffffffffffffffffffffffffffffffffffffffffffffffffffffff826102d8565b61031f86836102d8565b95508019841693508086168417925050509392505050565b6000819050919050565b6000819050919050565b600061036661036161035c84610337565b610341565b610337565b9050919050565b6000819050919050565b6103808361034b565b61039461038c8261036d565b8484546102e5565b825550505050565b600090565b6103a961039c565b6103b4818484610377565b505050565b5b818110156103d8576103cd6000826103a1565b6001810190506103ba565b5050565b601f82111561041d576103ee816102b3565b6103f7846102c8565b81016020851015610406578190505b61041a610412856102c8565b8301826103b9565b50505b505050565b600082821c905092915050565b600061044060001984600802610422565b1980831691505092915050565b6000610459838361042f565b9150826002028217905092915050565b61047282610219565b67ffffffffffffffff81111561048b5761048a610224565b5b6104958254610282565b6104a08282856103dc565b600060209050601f8311600181146104d357600084156104c1578287015190505b6104cb858261044d565b865550610533565b601f1984166104e1866102b3565b60005b82811015610509578489015182556001820191506020850194506020810190506104e4565b868310156105265784890151610522601f89168261042f565b8355505b6001600288020188555050505b505050505050565b6114028061054a6000396000f3fe6080604052600436106100555760003560e01c8063026150181461005a57806326dfa85c1461007657806366cf8fab146100b75780639101cc65146100f4578063aea55c591461011f578063dff4460114610148575b600080fd5b610074600480360381019061006f9190610b19565b610186565b005b34801561008257600080fd5b5061009d60048036038101906100989190610b75565b6103e8565b6040516100ae959493929190610c18565b60405180910390f35b3480156100c357600080fd5b506100de60048036038101906100d99190610c97565b610454565b6040516100eb9190610d43565b60405180910390f35b34801561010057600080fd5b50610109610500565b6040516101169190610e71565b60405180910390f35b34801561012b57600080fd5b5061014660048036038101906101419190610e93565b6105e2565b005b34801561015457600080fd5b5061016f600480360381019061016a9190610f2e565b61084c565b60405161017d929190610fb4565b60405180910390f35b61018f426108a0565b60006001836040516101a19190611019565b908152602001604051809103902060000154036102a1576040518060a00160405280428152602001600a426101d6919061105f565b8152602001610258426101e9919061105f565b815260200160008152602001600073ffffffffffffffffffffffffffffffffffffffff168152506001836040516102209190611019565b90815260200160405180910390206000820151816000015560208201518160010155604082015181600201556060820151816003015560808201518160040160006101000a81548173ffffffffffffffffffffffffffffffffffffffff021916908373ffffffffffffffffffffffffffffffffffffffff1602179055509050505b6000801b6002836040516102b59190611019565b908152602001604051809103902060003373ffffffffffffffffffffffffffffffffffffffff1673ffffffffffffffffffffffffffffffffffffffff1681526020019081526020016000206000015414610344576040517f08c379a000000000000000000000000000000000000000000000000000000000815260040161033b90611105565b60405180910390fd5b60405180604001604052808281526020016000151581525060028360405161036c9190611019565b908152602001604051809103902060003373ffffffffffffffffffffffffffffffffffffffff1673ffffffffffffffffffffffffffffffffffffffff1681526020019081526020016000206000820151816000015560208201518160010160006101000a81548160ff0219169083151502179055509050505050565b6001818051602081018201805184825260208301602085012081835280955050505050506000915090508060000154908060010154908060020154908060030154908060040160009054906101000a900473ffffffffffffffffffffffffffffffffffffffff16905085565b6000818154811061046457600080fd5b90600052602060002001600091509050805461047f90611154565b80601f01602080910402602001604051908101604052809291908181526020018280546104ab90611154565b80156104f85780601f106104cd576101008083540402835291602001916104f8565b820191906000526020600020905b8154815290600101906020018083116104db57829003601f168201915b505050505081565b606061050b426108a0565b6000805480602002602001604051908101604052809291908181526020016000905b828210156105d957838290600052602060002001805461054c90611154565b80601f016020809104026020016040519081016040528092919081815260200182805461057890611154565b80156105c55780601f1061059a576101008083540402835291602001916105c5565b820191906000526020600020905b8154815290600101906020018083116105a857829003601f168201915b50505050508152602001906001019061052d565b50505050905090565b60006001846040516105f49190611019565b90815260200160405180910390209050600081600001540361064b576040517f08c379a0000000000000000000000000000000000000000000000000000000008152600401610642906111d1565b60405180910390fd5b610654426108a0565b80600101544211801561066b575080600201544211155b6106aa576040517f08c379a00000000000000000000000000000000000000000000000000000000081526004016106a19061123d565b60405180910390fd5b60006002856040516106bc9190611019565b908152602001604051809103902060003373ffffffffffffffffffffffffffffffffffffffff1673ffffffffffffffffffffffffffffffffffffffff16815260200190815260200160002090508060010160009054906101000a900460ff161561075b576040517f08c379a0000000000000000000000000000000000000000000000000000000008152600401610752906112a9565b60405180910390fd5b806000015484846040516020016107739291906112ea565b60405160208183030381529060405280519060200120146107c9576040517f08c379a00000000000000000000000000000000000000000000000000000000081526004016107c090611362565b60405180910390fd5b60018160010160006101000a81548160ff02191690831515021790555081600301548460001c1115610845578360001c8260030181905550338260040160006101000a81548173ffffffffffffffffffffffffffffffffffffffff021916908373ffffffffffffffffffffffffffffffffffffffff1602179055505b5050505050565b600282805160208101820180518482526020830160208501208183528095505050505050602052806000526040600020600091509150508060000154908060010160009054906101000a900460ff16905082565b610936816040516024016108b49190611382565b6040516020818303038152906040527ff82c50f1000000000000000000000000000000000000000000000000000000007bffffffffffffffffffffffffffffffffffffffffffffffffffffffff19166020820180517bffffffffffffffffffffffffffffffffffffffffffffffffffffffff8381831617835250505050610939565b50565b61095081610948610953610974565b63ffffffff16565b50565b60006a636f6e736f6c652e6c6f679050600080835160208501845afa505050565b61097f819050919050565b61098761139d565b565b6000604051905090565b600080fd5b600080fd5b600080fd5b600080fd5b6000601f19601f8301169050919050565b7f4e487b7100000000000000000000000000000000000000000000000000000000600052604160045260246000fd5b6109f0826109a7565b810181811067ffffffffffffffff82111715610a0f57610a0e6109b8565b5b80604052505050565b6000610a22610989565b9050610a2e82826109e7565b919050565b600067ffffffffffffffff821115610a4e57610a4d6109b8565b5b610a57826109a7565b9050602081019050919050565b82818337600083830152505050565b6000610a86610a8184610a33565b610a18565b905082815260208101848484011115610aa257610aa16109a2565b5b610aad848285610a64565b509392505050565b600082601f830112610aca57610ac961099d565b5b8135610ada848260208601610a73565b91505092915050565b6000819050919050565b610af681610ae3565b8114610b0157600080fd5b50565b600081359050610b1381610aed565b92915050565b60008060408385031215610b3057610b2f610993565b5b600083013567ffffffffffffffff811115610b4e57610b4d610998565b5b610b5a85828601610ab5565b9250506020610b6b85828601610b04565b9150509250929050565b600060208284031215610b8b57610b8a610993565b5b600082013567ffffffffffffffff811115610ba957610ba8610998565b5b610bb584828501610ab5565b91505092915050565b6000819050919050565b610bd181610bbe565b82525050565b600073ffffffffffffffffffffffffffffffffffffffff82169050919050565b6000610c0282610bd7565b9050919050565b610c1281610bf7565b82525050565b600060a082019050610c2d6000830188610bc8565b610c3a6020830187610bc8565b610c476040830186610bc8565b610c546060830185610bc8565b610c616080830184610c09565b9695505050505050565b610c7481610bbe565b8114610c7f57600080fd5b50565b600081359050610c9181610c6b565b92915050565b600060208284031215610cad57610cac610993565b5b6000610cbb84828501610c82565b91505092915050565b600081519050919050565b600082825260208201905092915050565b60005b83811015610cfe578082015181840152602081019050610ce3565b60008484015250505050565b6000610d1582610cc4565b610d1f8185610ccf565b9350610d2f818560208601610ce0565b610d38816109a7565b840191505092915050565b60006020820190508181036000830152610d5d8184610d0a565b905092915050565b600081519050919050565b600082825260208201905092915050565b6000819050602082019050919050565b600082825260208201905092915050565b6000610dad82610cc4565b610db78185610d91565b9350610dc7818560208601610ce0565b610dd0816109a7565b840191505092915050565b6000610de78383610da2565b905092915050565b6000602082019050919050565b6000610e0782610d65565b610e118185610d70565b935083602082028501610e2385610d81565b8060005b85811015610e5f5784840389528151610e408582610ddb565b9450610e4b83610def565b925060208a01995050600181019050610e27565b50829750879550505050505092915050565b60006020820190508181036000830152610e8b8184610dfc565b905092915050565b600080600060608486031215610eac57610eab610993565b5b600084013567ffffffffffffffff811115610eca57610ec9610998565b5b610ed686828701610ab5565b9350506020610ee786828701610b04565b9250506040610ef886828701610b04565b9150509250925092565b610f0b81610bf7565b8114610f1657600080fd5b50565b600081359050610f2881610f02565b92915050565b60008060408385031215610f4557610f44610993565b5b600083013567ffffffffffffffff811115610f6357610f62610998565b5b610f6f85828601610ab5565b9250506020610f8085828601610f19565b9150509250929050565b610f9381610ae3565b82525050565b60008115159050919050565b610fae81610f99565b82525050565b6000604082019050610fc96000830185610f8a565b610fd66020830184610fa5565b9392505050565b600081905092915050565b6000610ff382610cc4565b610ffd8185610fdd565b935061100d818560208601610ce0565b80840191505092915050565b60006110258284610fe8565b915081905092915050565b7f4e487b7100000000000000000000000000000000000000000000000000000000600052601160045260246000fd5b600061106a82610bbe565b915061107583610bbe565b925082820190508082111561108d5761108c611030565b5b92915050565b7f4163636f756e7420616c72656164792062696464656420666f7220746869732060008201527f6164647265737300000000000000000000000000000000000000000000000000602082015250565b60006110ef602783610ccf565b91506110fa82611093565b604082019050919050565b6000602082019050818103600083015261111e816110e2565b9050919050565b7f4e487b7100000000000000000000000000000000000000000000000000000000600052602260045260246000fd5b6000600282049050600182168061116c57607f821691505b60208210810361117f5761117e611125565b5b50919050565b7f41756374696f6e20646f6573206e6f7420657869737400000000000000000000600082015250565b60006111bb601683610ccf565b91506111c682611185565b602082019050919050565b600060208201905081810360008301526111ea816111ae565b9050919050565b7f4e6f7420696e2072657665616c20706861736500000000000000000000000000600082015250565b6000611227601383610ccf565b9150611232826111f1565b602082019050919050565b600060208201905081810360008301526112568161121a565b9050919050565b7f42696420616c72656164792072657665616c6564000000000000000000000000600082015250565b6000611293601483610ccf565b915061129e8261125d565b602082019050919050565b600060208201905081810360008301526112c281611286565b9050919050565b6000819050919050565b6112e46112df82610ae3565b6112c9565b82525050565b60006112f682856112d3565b60208201915061130682846112d3565b6020820191508190509392505050565b7f496e76616c69642072657665616c000000000000000000000000000000000000600082015250565b600061134c600e83610ccf565b915061135782611316565b602082019050919050565b6000602082019050818103600083015261137b8161133f565b9050919050565b60006020820190506113976000830184610bc8565b92915050565b7f4e487b7100000000000000000000000000000000000000000000000000000000600052605160045260246000fdfea2646970667358221220b2d7797429eabf8cb7b40a038e1cae5a701410bfd7ea8970181fc86cc872071964736f6c634300081b0033",
  "linkReferences": {},
  "deployedLinkReferences": {}
}